{
  "_format": "hh-sol-artifact-1",
  "contractName": "RPS",
  "sourceName": "contracts/RPS.sol",
  "abi": [
    {
      "inputs": [
        {
          "internalType": "bytes32",
          "name": "_c1Hash",
          "type": "bytes32"
        },
        {
          "internalType": "address",
          "name": "_j2",
          "type": "address"
        }
      ],
      "stateMutability": "payable",
      "type": "constructor"
    },
    {
      "anonymous": false,
      "inputs": [
        {
          "indexed": false,
          "internalType": "bool",
          "name": "status",
          "type": "bool"
        }
      ],
      "name": "Game",
      "type": "event"
    },
    {
      "anonymous": false,
      "inputs": [
        {
          "indexed": false,
          "internalType": "enum RPS.Move",
          "name": "m",
          "type": "uint8"
        }
      ],
      "name": "J2Move",
      "type": "event"
    },
    {
      "anonymous": false,
      "inputs": [
        {
          "indexed": false,
          "internalType": "address",
          "name": "winner",
          "type": "address"
        }
      ],
      "name": "wins",
      "type": "event"
    },
    {
      "inputs": [],
      "name": "TIMEOUT",
      "outputs": [
        {
          "internalType": "uint256",
          "name": "",
          "type": "uint256"
        }
      ],
      "stateMutability": "view",
      "type": "function"
    },
    {
      "inputs": [],
      "name": "c1Hash",
      "outputs": [
        {
          "internalType": "bytes32",
          "name": "",
          "type": "bytes32"
        }
      ],
      "stateMutability": "view",
      "type": "function"
    },
    {
      "inputs": [],
      "name": "c2",
      "outputs": [
        {
          "internalType": "enum RPS.Move",
          "name": "",
          "type": "uint8"
        }
      ],
      "stateMutability": "view",
      "type": "function"
    },
    {
      "inputs": [],
      "name": "j1",
      "outputs": [
        {
          "internalType": "address",
          "name": "",
          "type": "address"
        }
      ],
      "stateMutability": "view",
      "type": "function"
    },
    {
      "inputs": [],
      "name": "j1Timeout",
      "outputs": [],
      "stateMutability": "nonpayable",
      "type": "function"
    },
    {
      "inputs": [],
      "name": "j2",
      "outputs": [
        {
          "internalType": "address",
          "name": "",
          "type": "address"
        }
      ],
      "stateMutability": "view",
      "type": "function"
    },
    {
      "inputs": [],
      "name": "j2Timeout",
      "outputs": [],
      "stateMutability": "nonpayable",
      "type": "function"
    },
    {
      "inputs": [],
      "name": "lastAction",
      "outputs": [
        {
          "internalType": "uint256",
          "name": "",
          "type": "uint256"
        }
      ],
      "stateMutability": "view",
      "type": "function"
    },
    {
      "inputs": [
        {
          "internalType": "enum RPS.Move",
          "name": "_c2",
          "type": "uint8"
        }
      ],
      "name": "play",
      "outputs": [],
      "stateMutability": "payable",
      "type": "function"
    },
    {
      "inputs": [
        {
          "internalType": "enum RPS.Move",
          "name": "_c1",
          "type": "uint8"
        },
        {
          "internalType": "uint256",
          "name": "_salt",
          "type": "uint256"
        }
      ],
      "name": "solve",
      "outputs": [],
      "stateMutability": "nonpayable",
      "type": "function"
    },
    {
      "inputs": [],
      "name": "stake",
      "outputs": [
        {
          "internalType": "uint256",
          "name": "",
          "type": "uint256"
        }
      ],
      "stateMutability": "view",
      "type": "function"
    }
  ],
  "bytecode": "0x608060405261012c600555604051620018783803806200187883398181016040528101906200002f919062000135565b34600481905550336000806101000a81548173ffffffffffffffffffffffffffffffffffffffff021916908373ffffffffffffffffffffffffffffffffffffffff16021790555080600160006101000a81548173ffffffffffffffffffffffffffffffffffffffff021916908373ffffffffffffffffffffffffffffffffffffffff16021790555081600281905550426006819055507f6e7c98f0608d94ef6da86a58abbdd3fd8f7f180a561683b3084472c0884db47c6001604051620000f791906200018d565b60405180910390a150506200022d565b6000815190506200011881620001f9565b92915050565b6000815190506200012f8162000213565b92915050565b600080604083850312156200014f576200014e620001f4565b5b60006200015f858286016200011e565b9250506020620001728582860162000107565b9150509250929050565b6200018781620001be565b82525050565b6000602082019050620001a460008301846200017c565b92915050565b6000620001b782620001d4565b9050919050565b60008115159050919050565b6000819050919050565b600073ffffffffffffffffffffffffffffffffffffffff82169050919050565b600080fd5b6200020481620001aa565b81146200021057600080fd5b50565b6200021e81620001ca565b81146200022a57600080fd5b50565b61163b806200023d6000396000f3fe60806040526004361061009c5760003560e01c806380985af91161006457806380985af91461015557806389f71d5314610180578063a5ddec7c146101ab578063c37597c6146101d4578063c8391142146101ff578063f56f48f2146102165761009c565b8063294914a4146100a15780633a4b66f1146100b857806348e257cb146100e35780634d03e3d21461010e57806353a04b0514610139575b600080fd5b3480156100ad57600080fd5b506100b6610241565b005b3480156100c457600080fd5b506100cd6102b2565b6040516100da91906111ef565b60405180910390f35b3480156100ef57600080fd5b506100f86102b8565b6040516101059190611094565b60405180910390f35b34801561011a57600080fd5b506101236102cb565b6040516101309190611079565b60405180910390f35b610153600480360381019061014e9190610dc5565b6102d1565b005b34801561016157600080fd5b5061016a6104ee565b604051610177919061105e565b60405180910390f35b34801561018c57600080fd5b50610195610514565b6040516101a291906111ef565b60405180910390f35b3480156101b757600080fd5b506101d260048036038101906101cd9190610df2565b61051a565b005b3480156101e057600080fd5b506101e9610b7c565b6040516101f6919061105e565b60405180910390f35b34801561020b57600080fd5b50610214610ba0565b005b34801561022257600080fd5b5061022b610c86565b60405161023891906111ef565b60405180910390f35b60006005811115610255576102546113ec565b5b600360009054906101000a900460ff166005811115610277576102766113ec565b5b1461028157600080fd5b6005546006546102919190611226565b421161029c57600080fd5b60008054906101000a9050506000600481905550565b60045481565b600360009054906101000a900460ff1681565b60025481565b600060058111156102e5576102e46113ec565b5b600360009054906101000a900460ff166005811115610307576103066113ec565b5b14610347576040517f08c379a000000000000000000000000000000000000000000000000000000000815260040161033e9061110f565b60405180910390fd5b6000600581111561035b5761035a6113ec565b5b81600581111561036e5761036d6113ec565b5b14156103af576040517f08c379a00000000000000000000000000000000000000000000000000000000081526004016103a69061118f565b60405180910390fd5b60045434146103f3576040517f08c379a00000000000000000000000000000000000000000000000000000000081526004016103ea9061116f565b60405180910390fd5b600160009054906101000a900473ffffffffffffffffffffffffffffffffffffffff1673ffffffffffffffffffffffffffffffffffffffff163373ffffffffffffffffffffffffffffffffffffffff1614610483576040517f08c379a000000000000000000000000000000000000000000000000000000000815260040161047a906110cf565b60405180910390fd5b80600360006101000a81548160ff021916908360058111156104a8576104a76113ec565b5b0217905550426006819055507fa2a70329b817e57fa5d6165e012f2e50d9f343f61ae8bc8730073b95550c3e1c816040516104e39190611094565b60405180910390a150565b600160009054906101000a900473ffffffffffffffffffffffffffffffffffffffff1681565b60065481565b6000600581111561052e5761052d6113ec565b5b826005811115610541576105406113ec565b5b1415610582576040517f08c379a00000000000000000000000000000000000000000000000000000000081526004016105799061112f565b60405180910390fd5b60006005811115610596576105956113ec565b5b600360009054906101000a900460ff1660058111156105b8576105b76113ec565b5b14156105f9576040517f08c379a00000000000000000000000000000000000000000000000000000000081526004016105f0906111af565b60405180910390fd5b60008054906101000a900473ffffffffffffffffffffffffffffffffffffffff1673ffffffffffffffffffffffffffffffffffffffff163373ffffffffffffffffffffffffffffffffffffffff1614610687576040517f08c379a000000000000000000000000000000000000000000000000000000000815260040161067e9061114f565b60405180910390fd5b600254828260405160200161069d92919061101d565b60405160208183030381529060405280519060200120146106f3576040517f08c379a00000000000000000000000000000000000000000000000000000000081526004016106ea906110af565b60405180910390fd5b61070c82600360009054906101000a900460ff16610c8c565b156108495760008060009054906101000a900473ffffffffffffffffffffffffffffffffffffffff1673ffffffffffffffffffffffffffffffffffffffff16600454600261075a919061127c565b60405161076690611049565b60006040518083038185875af1925050503d80600081146107a3576040519150601f19603f3d011682016040523d82523d6000602084013e6107a8565b606091505b50509050806107ec576040517f08c379a00000000000000000000000000000000000000000000000000000000081526004016107e3906111cf565b60405180910390fd5b7f8047a97ac9efea27bb9b86a5928fa12f43ef92faec51097c05c33492196c936d60008054906101000a900473ffffffffffffffffffffffffffffffffffffffff1660405161083b919061105e565b60405180910390a150610b45565b610862600360009054906101000a900460ff1683610c8c565b156109a2576000600160009054906101000a900473ffffffffffffffffffffffffffffffffffffffff1673ffffffffffffffffffffffffffffffffffffffff1660045460026108b1919061127c565b6040516108bd90611049565b60006040518083038185875af1925050503d80600081146108fa576040519150601f19603f3d011682016040523d82523d6000602084013e6108ff565b606091505b5050905080610943576040517f08c379a000000000000000000000000000000000000000000000000000000000815260040161093a906111cf565b60405180910390fd5b7f8047a97ac9efea27bb9b86a5928fa12f43ef92faec51097c05c33492196c936d600160009054906101000a900473ffffffffffffffffffffffffffffffffffffffff16604051610994919061105e565b60405180910390a150610b44565b60008060009054906101000a900473ffffffffffffffffffffffffffffffffffffffff1673ffffffffffffffffffffffffffffffffffffffff166004546040516109eb90611049565b60006040518083038185875af1925050503d8060008114610a28576040519150601f19603f3d011682016040523d82523d6000602084013e610a2d565b606091505b5050905080610a71576040517f08c379a0000000000000000000000000000000000000000000000000000000008152600401610a68906111cf565b60405180910390fd5b6000600160009054906101000a900473ffffffffffffffffffffffffffffffffffffffff1673ffffffffffffffffffffffffffffffffffffffff16600454604051610abb90611049565b60006040518083038185875af1925050503d8060008114610af8576040519150601f19603f3d011682016040523d82523d6000602084013e610afd565b606091505b5050905080610b41576040517f08c379a0000000000000000000000000000000000000000000000000000000008152600401610b38906111cf565b60405180910390fd5b50505b5b60006004819055506000600360006101000a81548160ff02191690836005811115610b7357610b726113ec565b5b02179055505050565b60008054906101000a900473ffffffffffffffffffffffffffffffffffffffff1681565b60006005811115610bb457610bb36113ec565b5b600360009054906101000a900460ff166005811115610bd657610bd56113ec565b5b1415610c17576040517f08c379a0000000000000000000000000000000000000000000000000000000008152600401610c0e906110ef565b60405180910390fd5b600554600654610c279190611226565b4211610c3257600080fd5b600160009054906101000a900473ffffffffffffffffffffffffffffffffffffffff1673ffffffffffffffffffffffffffffffffffffffff166004546002610c7a919061127c565b50506000600481905550565b60055481565b6000816005811115610ca157610ca06113ec565b5b836005811115610cb457610cb36113ec565b5b1415610cc35760009050610d95565b60006005811115610cd757610cd66113ec565b5b836005811115610cea57610ce96113ec565b5b1415610cf95760009050610d95565b6002826005811115610d0e57610d0d6113ec565b5b610d18919061135d565b6002846005811115610d2d57610d2c6113ec565b5b610d37919061135d565b1415610d6b57816005811115610d5057610d4f6113ec565b5b836005811115610d6357610d626113ec565b5b109050610d95565b816005811115610d7e57610d7d6113ec565b5b836005811115610d9157610d906113ec565b5b1190505b92915050565b600081359050610daa816115de565b92915050565b600081359050610dbf816115ee565b92915050565b600060208284031215610ddb57610dda61141b565b5b6000610de984828501610d9b565b91505092915050565b60008060408385031215610e0957610e0861141b565b5b6000610e1785828601610d9b565b9250506020610e2885828601610db0565b9150509250929050565b610e3b816112d6565b82525050565b610e4a816112e8565b82525050565b610e598161132f565b82525050565b610e70610e6b8261132f565b61134b565b82525050565b6000610e83601283611215565b9150610e8e8261142d565b602082019050919050565b6000610ea6601583611215565b9150610eb182611456565b602082019050919050565b6000610ec9601183611215565b9150610ed48261147f565b602082019050919050565b6000610eec601583611215565b9150610ef7826114a8565b602082019050919050565b6000610f0f601783611215565b9150610f1a826114d1565b602082019050919050565b6000610f32601583611215565b9150610f3d826114fa565b602082019050919050565b6000610f55600e83611215565b9150610f6082611523565b602082019050919050565b6000610f78600f83611215565b9150610f838261154c565b602082019050919050565b6000610f9b60008361120a565b9150610fa682611575565b600082019050919050565b6000610fbe601783611215565b9150610fc982611578565b602082019050919050565b6000610fe1601283611215565b9150610fec826115a1565b602082019050919050565b61100081611325565b82525050565b61101761101282611325565b611341565b82525050565b60006110298285610e5f565b6001820191506110398284611006565b6020820191508190509392505050565b600061105482610f8e565b9150819050919050565b60006020820190506110736000830184610e32565b92915050565b600060208201905061108e6000830184610e41565b92915050565b60006020820190506110a96000830184610e50565b92915050565b600060208201905081810360008301526110c881610e76565b9050919050565b600060208201905081810360008301526110e881610e99565b9050919050565b6000602082019050818103600083015261110881610ebc565b9050919050565b6000602082019050818103600083015261112881610edf565b9050919050565b6000602082019050818103600083015261114881610f02565b9050919050565b6000602082019050818103600083015261116881610f25565b9050919050565b6000602082019050818103600083015261118881610f48565b9050919050565b600060208201905081810360008301526111a881610f6b565b9050919050565b600060208201905081810360008301526111c881610fb1565b9050919050565b600060208201905081810360008301526111e881610fd4565b9050919050565b60006020820190506112046000830184610ff7565b92915050565b600081905092915050565b600082825260208201905092915050565b600061123182611325565b915061123c83611325565b9250827fffffffffffffffffffffffffffffffffffffffffffffffffffffffffffffffff038211156112715761127061138e565b5b828201905092915050565b600061128782611325565b915061129283611325565b9250817fffffffffffffffffffffffffffffffffffffffffffffffffffffffffffffffff04831182151516156112cb576112ca61138e565b5b828202905092915050565b60006112e182611305565b9050919050565b6000819050919050565b6000819050611300826115ca565b919050565b600073ffffffffffffffffffffffffffffffffffffffff82169050919050565b6000819050919050565b600061133a826112f2565b9050919050565b6000819050919050565b600061135682611420565b9050919050565b600061136882611325565b915061137383611325565b925082611383576113826113bd565b5b828206905092915050565b7f4e487b7100000000000000000000000000000000000000000000000000000000600052601160045260246000fd5b7f4e487b7100000000000000000000000000000000000000000000000000000000600052601260045260246000fd5b7f4e487b7100000000000000000000000000000000000000000000000000000000600052602160045260246000fd5b600080fd5b60008160f81b9050919050565b7f6861736820646f65736e2774206d617463680000000000000000000000000000600082015250565b7f4f6e6c79204a322063616e2063616c6c20746869730000000000000000000000600082015250565b7f4a3220686173206e6f7420706c61796564000000000000000000000000000000600082015250565b7f4a322068617320616c726561647920706c617965640000000000000000000000600082015250565b7f4a312073686f756c6420706c617920686973206d6f7665000000000000000000600082015250565b7f6f6e6c79204a312063616e2063616c6c20746869730000000000000000000000600082015250565b7f4769766520746865207374616b65000000000000000000000000000000000000600082015250565b7f53656c656374206f6e65206d6f76650000000000000000000000000000000000600082015250565b50565b7f4a322073686f756c6420706c617920686973206d6f7665000000000000000000600082015250565b7f7472616e73616374696f6e206661696c65640000000000000000000000000000600082015250565b600681106115db576115da6113ec565b5b50565b600681106115eb57600080fd5b50565b6115f781611325565b811461160257600080fd5b5056fea26469706673582212200d3e08804df09eb719330bacc1616e92d41d0ff6e1acad07aa5e59c18cd4e46264736f6c63430008060033",
  "linkReferences": {},
  "deployedLinkReferences": {}
}