{
  "_format": "hh-sol-artifact-1",
  "contractName": "RPS",
  "sourceName": "contracts/RPS.sol",
  "abi": [
    {
      "inputs": [
        {
          "internalType": "bytes32",
          "name": "_c1Hash",
          "type": "bytes32"
        },
        {
          "internalType": "address",
          "name": "_j2",
          "type": "address"
        }
      ],
      "stateMutability": "payable",
      "type": "constructor"
    },
    {
      "anonymous": false,
      "inputs": [
        {
          "indexed": false,
          "internalType": "bool",
          "name": "status",
          "type": "bool"
        }
      ],
      "name": "Game",
      "type": "event"
    },
    {
      "anonymous": false,
      "inputs": [
        {
          "indexed": false,
          "internalType": "enum RPS.Move",
          "name": "m",
          "type": "uint8"
        }
      ],
      "name": "J2Move",
      "type": "event"
    },
    {
      "anonymous": false,
      "inputs": [
        {
          "indexed": false,
          "internalType": "bool",
          "name": "status",
          "type": "bool"
        }
      ],
      "name": "Tie",
      "type": "event"
    },
    {
      "anonymous": false,
      "inputs": [
        {
          "indexed": false,
          "internalType": "bool",
          "name": "status",
          "type": "bool"
        },
        {
          "indexed": false,
          "internalType": "address",
          "name": "caller",
          "type": "address"
        }
      ],
      "name": "Timeout",
      "type": "event"
    },
    {
      "anonymous": false,
      "inputs": [
        {
          "indexed": false,
          "internalType": "bool",
          "name": "status",
          "type": "bool"
        }
      ],
      "name": "joined",
      "type": "event"
    },
    {
      "anonymous": false,
      "inputs": [
        {
          "indexed": false,
          "internalType": "address",
          "name": "winner",
          "type": "address"
        }
      ],
      "name": "wins",
      "type": "event"
    },
    {
      "inputs": [],
      "name": "TIMEOUT",
      "outputs": [
        {
          "internalType": "uint256",
          "name": "",
          "type": "uint256"
        }
      ],
      "stateMutability": "view",
      "type": "function"
    },
    {
      "inputs": [],
      "name": "c1Hash",
      "outputs": [
        {
          "internalType": "bytes32",
          "name": "",
          "type": "bytes32"
        }
      ],
      "stateMutability": "view",
      "type": "function"
    },
    {
      "inputs": [],
      "name": "c2",
      "outputs": [
        {
          "internalType": "enum RPS.Move",
          "name": "",
          "type": "uint8"
        }
      ],
      "stateMutability": "view",
      "type": "function"
    },
    {
      "inputs": [],
      "name": "getJ1",
      "outputs": [
        {
          "internalType": "address",
          "name": "",
          "type": "address"
        }
      ],
      "stateMutability": "view",
      "type": "function"
    },
    {
      "inputs": [],
      "name": "getJ2",
      "outputs": [
        {
          "internalType": "address",
          "name": "",
          "type": "address"
        }
      ],
      "stateMutability": "view",
      "type": "function"
    },
    {
      "inputs": [],
      "name": "getTimer",
      "outputs": [
        {
          "internalType": "uint256",
          "name": "",
          "type": "uint256"
        }
      ],
      "stateMutability": "view",
      "type": "function"
    },
    {
      "inputs": [],
      "name": "j1",
      "outputs": [
        {
          "internalType": "address",
          "name": "",
          "type": "address"
        }
      ],
      "stateMutability": "view",
      "type": "function"
    },
    {
      "inputs": [],
      "name": "j1Timeout",
      "outputs": [],
      "stateMutability": "nonpayable",
      "type": "function"
    },
    {
      "inputs": [],
      "name": "j2",
      "outputs": [
        {
          "internalType": "address",
          "name": "",
          "type": "address"
        }
      ],
      "stateMutability": "view",
      "type": "function"
    },
    {
      "inputs": [],
      "name": "j2Timeout",
      "outputs": [],
      "stateMutability": "nonpayable",
      "type": "function"
    },
    {
      "inputs": [],
      "name": "lastAction",
      "outputs": [
        {
          "internalType": "uint256",
          "name": "",
          "type": "uint256"
        }
      ],
      "stateMutability": "view",
      "type": "function"
    },
    {
      "inputs": [
        {
          "internalType": "enum RPS.Move",
          "name": "_c2",
          "type": "uint8"
        }
      ],
      "name": "play",
      "outputs": [],
      "stateMutability": "payable",
      "type": "function"
    },
    {
      "inputs": [
        {
          "internalType": "enum RPS.Move",
          "name": "_c1",
          "type": "uint8"
        },
        {
          "internalType": "uint256",
          "name": "_salt",
          "type": "uint256"
        }
      ],
      "name": "solve",
      "outputs": [],
      "stateMutability": "nonpayable",
      "type": "function"
    },
    {
      "inputs": [],
      "name": "stake",
      "outputs": [
        {
          "internalType": "uint256",
          "name": "",
          "type": "uint256"
        }
      ],
      "stateMutability": "view",
      "type": "function"
    }
  ],
  "bytecode": "0x608060405261012c60055560405162001b2238038062001b2283398181016040528101906200002f919062000135565b34600481905550336000806101000a81548173ffffffffffffffffffffffffffffffffffffffff021916908373ffffffffffffffffffffffffffffffffffffffff16021790555080600160006101000a81548173ffffffffffffffffffffffffffffffffffffffff021916908373ffffffffffffffffffffffffffffffffffffffff16021790555081600281905550426006819055507f6e7c98f0608d94ef6da86a58abbdd3fd8f7f180a561683b3084472c0884db47c6001604051620000f791906200018d565b60405180910390a150506200022d565b6000815190506200011881620001f9565b92915050565b6000815190506200012f8162000213565b92915050565b600080604083850312156200014f576200014e620001f4565b5b60006200015f858286016200011e565b9250506020620001728582860162000107565b9150509250929050565b6200018781620001be565b82525050565b6000602082019050620001a460008301846200017c565b92915050565b6000620001b782620001d4565b9050919050565b60008115159050919050565b6000819050919050565b600073ffffffffffffffffffffffffffffffffffffffff82169050919050565b600080fd5b6200020481620001aa565b81146200021057600080fd5b50565b6200021e81620001ca565b81146200022a57600080fd5b50565b6118e5806200023d6000396000f3fe6080604052600436106100dd5760003560e01c806389f71d531161007f578063c37597c611610059578063c37597c61461026b578063c839114214610296578063eb7dd9da146102ad578063f56f48f2146102d8576100dd565b806389f71d53146101ec578063a5ddec7c14610217578063a7203d3414610240576100dd565b806348e257cb116100bb57806348e257cb1461014f5780634d03e3d21461017a57806353a04b05146101a557806380985af9146101c1576100dd565b8063294914a4146100e25780633a4b66f1146100f957806342c5910114610124575b600080fd5b3480156100ee57600080fd5b506100f7610303565b005b34801561010557600080fd5b5061010e6103ce565b60405161011b9190611459565b60405180910390f35b34801561013057600080fd5b506101396103d4565b6040516101469190611284565b60405180910390f35b34801561015b57600080fd5b506101646103fd565b60405161017191906112fe565b60405180910390f35b34801561018657600080fd5b5061018f610410565b60405161019c91906112e3565b60405180910390f35b6101bf60048036038101906101ba9190610fdc565b610416565b005b3480156101cd57600080fd5b506101d6610633565b6040516101e39190611284565b60405180910390f35b3480156101f857600080fd5b50610201610659565b60405161020e9190611459565b60405180910390f35b34801561022357600080fd5b5061023e60048036038101906102399190611009565b61065f565b005b34801561024c57600080fd5b50610255610cf9565b6040516102629190611459565b60405180910390f35b34801561027757600080fd5b50610280610d0e565b60405161028d9190611284565b60405180910390f35b3480156102a257600080fd5b506102ab610d32565b005b3480156102b957600080fd5b506102c2610e73565b6040516102cf9190611284565b60405180910390f35b3480156102e457600080fd5b506102ed610e9d565b6040516102fa9190611459565b60405180910390f35b6000600581111561031757610316611696565b5b600360009054906101000a900460ff16600581111561033957610338611696565b5b1461034357600080fd5b6005546006546103539190611490565b421161035e57600080fd5b60008054906101000a90505060006004819055507fe7e8a53e539ec3a31b72ff5c4c87bcba6de368e07c85cb0b0e96c4957d988a46600160008054906101000a900473ffffffffffffffffffffffffffffffffffffffff166040516103c49291906112ba565b60405180910390a1565b60045481565b60008060009054906101000a900473ffffffffffffffffffffffffffffffffffffffff16905090565b600360009054906101000a900460ff1681565b60025481565b6000600581111561042a57610429611696565b5b600360009054906101000a900460ff16600581111561044c5761044b611696565b5b1461048c576040517f08c379a000000000000000000000000000000000000000000000000000000000815260040161048390611379565b60405180910390fd5b600060058111156104a05761049f611696565b5b8160058111156104b3576104b2611696565b5b14156104f4576040517f08c379a00000000000000000000000000000000000000000000000000000000081526004016104eb906113f9565b60405180910390fd5b6004543414610538576040517f08c379a000000000000000000000000000000000000000000000000000000000815260040161052f906113d9565b60405180910390fd5b600160009054906101000a900473ffffffffffffffffffffffffffffffffffffffff1673ffffffffffffffffffffffffffffffffffffffff163373ffffffffffffffffffffffffffffffffffffffff16146105c8576040517f08c379a00000000000000000000000000000000000000000000000000000000081526004016105bf90611339565b60405180910390fd5b80600360006101000a81548160ff021916908360058111156105ed576105ec611696565b5b0217905550426006819055507fa2a70329b817e57fa5d6165e012f2e50d9f343f61ae8bc8730073b95550c3e1c8160405161062891906112fe565b60405180910390a150565b600160009054906101000a900473ffffffffffffffffffffffffffffffffffffffff1681565b60065481565b6000600581111561067357610672611696565b5b82600581111561068657610685611696565b5b14156106c7576040517f08c379a00000000000000000000000000000000000000000000000000000000081526004016106be90611399565b60405180910390fd5b600060058111156106db576106da611696565b5b600360009054906101000a900460ff1660058111156106fd576106fc611696565b5b141561073e576040517f08c379a000000000000000000000000000000000000000000000000000000000815260040161073590611419565b60405180910390fd5b60008054906101000a900473ffffffffffffffffffffffffffffffffffffffff1673ffffffffffffffffffffffffffffffffffffffff163373ffffffffffffffffffffffffffffffffffffffff16146107cc576040517f08c379a00000000000000000000000000000000000000000000000000000000081526004016107c3906113b9565b60405180910390fd5b60025482826040516020016107e2929190611243565b6040516020818303038152906040528051906020012014610838576040517f08c379a000000000000000000000000000000000000000000000000000000000815260040161082f90611319565b60405180910390fd5b61085182600360009054906101000a900460ff16610ea3565b1561098e5760008060009054906101000a900473ffffffffffffffffffffffffffffffffffffffff1673ffffffffffffffffffffffffffffffffffffffff16600454600261089f91906114e6565b6040516108ab9061126f565b60006040518083038185875af1925050503d80600081146108e8576040519150601f19603f3d011682016040523d82523d6000602084013e6108ed565b606091505b5050905080610931576040517f08c379a000000000000000000000000000000000000000000000000000000000815260040161092890611439565b60405180910390fd5b7f8047a97ac9efea27bb9b86a5928fa12f43ef92faec51097c05c33492196c936d60008054906101000a900473ffffffffffffffffffffffffffffffffffffffff166040516109809190611284565b60405180910390a150610cc2565b6109a7600360009054906101000a900460ff1683610ea3565b15610ae7576000600160009054906101000a900473ffffffffffffffffffffffffffffffffffffffff1673ffffffffffffffffffffffffffffffffffffffff1660045460026109f691906114e6565b604051610a029061126f565b60006040518083038185875af1925050503d8060008114610a3f576040519150601f19603f3d011682016040523d82523d6000602084013e610a44565b606091505b5050905080610a88576040517f08c379a0000000000000000000000000000000000000000000000000000000008152600401610a7f90611439565b60405180910390fd5b7f8047a97ac9efea27bb9b86a5928fa12f43ef92faec51097c05c33492196c936d600160009054906101000a900473ffffffffffffffffffffffffffffffffffffffff16604051610ad99190611284565b60405180910390a150610cc1565b60008060009054906101000a900473ffffffffffffffffffffffffffffffffffffffff1673ffffffffffffffffffffffffffffffffffffffff16600454604051610b309061126f565b60006040518083038185875af1925050503d8060008114610b6d576040519150601f19603f3d011682016040523d82523d6000602084013e610b72565b606091505b5050905080610bb6576040517f08c379a0000000000000000000000000000000000000000000000000000000008152600401610bad90611439565b60405180910390fd5b6000600160009054906101000a900473ffffffffffffffffffffffffffffffffffffffff1673ffffffffffffffffffffffffffffffffffffffff16600454604051610c009061126f565b60006040518083038185875af1925050503d8060008114610c3d576040519150601f19603f3d011682016040523d82523d6000602084013e610c42565b606091505b5050905080610c86576040517f08c379a0000000000000000000000000000000000000000000000000000000008152600401610c7d90611439565b60405180910390fd5b7ff239a9124b7d57a3894cccde0ed348b91ff965d770757bf9d3ddf2108f8860426001604051610cb6919061129f565b60405180910390a150505b5b60006004819055506000600360006101000a81548160ff02191690836005811115610cf057610cef611696565b5b02179055505050565b600060065442610d099190611540565b905090565b60008054906101000a900473ffffffffffffffffffffffffffffffffffffffff1681565b60006005811115610d4657610d45611696565b5b600360009054906101000a900460ff166005811115610d6857610d67611696565b5b1415610da9576040517f08c379a0000000000000000000000000000000000000000000000000000000008152600401610da090611359565b60405180910390fd5b600554600654610db99190611490565b4211610dc457600080fd5b600160009054906101000a900473ffffffffffffffffffffffffffffffffffffffff1673ffffffffffffffffffffffffffffffffffffffff166004546002610e0c91906114e6565b505060006004819055507fe7e8a53e539ec3a31b72ff5c4c87bcba6de368e07c85cb0b0e96c4957d988a4660018060009054906101000a900473ffffffffffffffffffffffffffffffffffffffff16604051610e699291906112ba565b60405180910390a1565b6000600160009054906101000a900473ffffffffffffffffffffffffffffffffffffffff16905090565b60055481565b6000816005811115610eb857610eb7611696565b5b836005811115610ecb57610eca611696565b5b1415610eda5760009050610fac565b60006005811115610eee57610eed611696565b5b836005811115610f0157610f00611696565b5b1415610f105760009050610fac565b6002826005811115610f2557610f24611696565b5b610f2f9190611607565b6002846005811115610f4457610f43611696565b5b610f4e9190611607565b1415610f8257816005811115610f6757610f66611696565b5b836005811115610f7a57610f79611696565b5b109050610fac565b816005811115610f9557610f94611696565b5b836005811115610fa857610fa7611696565b5b1190505b92915050565b600081359050610fc181611888565b92915050565b600081359050610fd681611898565b92915050565b600060208284031215610ff257610ff16116c5565b5b600061100084828501610fb2565b91505092915050565b600080604083850312156110205761101f6116c5565b5b600061102e85828601610fb2565b925050602061103f85828601610fc7565b9150509250929050565b61105281611574565b82525050565b61106181611586565b82525050565b61107081611592565b82525050565b61107f816115d9565b82525050565b611096611091826115d9565b6115f5565b82525050565b60006110a960128361147f565b91506110b4826116d7565b602082019050919050565b60006110cc60158361147f565b91506110d782611700565b602082019050919050565b60006110ef60118361147f565b91506110fa82611729565b602082019050919050565b600061111260158361147f565b915061111d82611752565b602082019050919050565b600061113560178361147f565b91506111408261177b565b602082019050919050565b600061115860158361147f565b9150611163826117a4565b602082019050919050565b600061117b600e8361147f565b9150611186826117cd565b602082019050919050565b600061119e600f8361147f565b91506111a9826117f6565b602082019050919050565b60006111c1600083611474565b91506111cc8261181f565b600082019050919050565b60006111e460178361147f565b91506111ef82611822565b602082019050919050565b600061120760128361147f565b91506112128261184b565b602082019050919050565b611226816115cf565b82525050565b61123d611238826115cf565b6115eb565b82525050565b600061124f8285611085565b60018201915061125f828461122c565b6020820191508190509392505050565b600061127a826111b4565b9150819050919050565b60006020820190506112996000830184611049565b92915050565b60006020820190506112b46000830184611058565b92915050565b60006040820190506112cf6000830185611058565b6112dc6020830184611049565b9392505050565b60006020820190506112f86000830184611067565b92915050565b60006020820190506113136000830184611076565b92915050565b600060208201905081810360008301526113328161109c565b9050919050565b60006020820190508181036000830152611352816110bf565b9050919050565b60006020820190508181036000830152611372816110e2565b9050919050565b6000602082019050818103600083015261139281611105565b9050919050565b600060208201905081810360008301526113b281611128565b9050919050565b600060208201905081810360008301526113d28161114b565b9050919050565b600060208201905081810360008301526113f28161116e565b9050919050565b6000602082019050818103600083015261141281611191565b9050919050565b60006020820190508181036000830152611432816111d7565b9050919050565b60006020820190508181036000830152611452816111fa565b9050919050565b600060208201905061146e600083018461121d565b92915050565b600081905092915050565b600082825260208201905092915050565b600061149b826115cf565b91506114a6836115cf565b9250827fffffffffffffffffffffffffffffffffffffffffffffffffffffffffffffffff038211156114db576114da611638565b5b828201905092915050565b60006114f1826115cf565b91506114fc836115cf565b9250817fffffffffffffffffffffffffffffffffffffffffffffffffffffffffffffffff048311821515161561153557611534611638565b5b828202905092915050565b600061154b826115cf565b9150611556836115cf565b92508282101561156957611568611638565b5b828203905092915050565b600061157f826115af565b9050919050565b60008115159050919050565b6000819050919050565b60008190506115aa82611874565b919050565b600073ffffffffffffffffffffffffffffffffffffffff82169050919050565b6000819050919050565b60006115e48261159c565b9050919050565b6000819050919050565b6000611600826116ca565b9050919050565b6000611612826115cf565b915061161d836115cf565b92508261162d5761162c611667565b5b828206905092915050565b7f4e487b7100000000000000000000000000000000000000000000000000000000600052601160045260246000fd5b7f4e487b7100000000000000000000000000000000000000000000000000000000600052601260045260246000fd5b7f4e487b7100000000000000000000000000000000000000000000000000000000600052602160045260246000fd5b600080fd5b60008160f81b9050919050565b7f6861736820646f65736e2774206d617463680000000000000000000000000000600082015250565b7f4f6e6c79204a322063616e2063616c6c20746869730000000000000000000000600082015250565b7f4a3220686173206e6f7420706c61796564000000000000000000000000000000600082015250565b7f4a322068617320616c726561647920706c617965640000000000000000000000600082015250565b7f4a312073686f756c6420706c617920686973206d6f7665000000000000000000600082015250565b7f6f6e6c79204a312063616e2063616c6c20746869730000000000000000000000600082015250565b7f4769766520746865207374616b65000000000000000000000000000000000000600082015250565b7f53656c656374206f6e65206d6f76650000000000000000000000000000000000600082015250565b50565b7f4a322073686f756c6420706c617920686973206d6f7665000000000000000000600082015250565b7f7472616e73616374696f6e206661696c65640000000000000000000000000000600082015250565b6006811061188557611884611696565b5b50565b6006811061189557600080fd5b50565b6118a1816115cf565b81146118ac57600080fd5b5056fea2646970667358221220939cc77c2298d2d091c8a2f017cc11a38744f1ffe6ba5c0f9b4670c5b59fda6964736f6c63430008060033",
  "linkReferences": {},
  "deployedLinkReferences": {}
}