{
  "_format": "hh-sol-artifact-1",
  "contractName": "RPS",
  "sourceName": "contracts/RPS.sol",
  "abi": [
    {
      "inputs": [
        {
          "internalType": "bytes32",
          "name": "_c1Hash",
          "type": "bytes32"
        },
        {
          "internalType": "address",
          "name": "_j2",
          "type": "address"
        }
      ],
      "stateMutability": "payable",
      "type": "constructor"
    },
    {
      "anonymous": false,
      "inputs": [
        {
          "indexed": false,
          "internalType": "bool",
          "name": "status",
          "type": "bool"
        }
      ],
      "name": "Game",
      "type": "event"
    },
    {
      "anonymous": false,
      "inputs": [
        {
          "indexed": false,
          "internalType": "enum RPS.Move",
          "name": "m",
          "type": "uint8"
        }
      ],
      "name": "J1Move",
      "type": "event"
    },
    {
      "anonymous": false,
      "inputs": [
        {
          "indexed": false,
          "internalType": "enum RPS.Move",
          "name": "m",
          "type": "uint8"
        }
      ],
      "name": "J2Move",
      "type": "event"
    },
    {
      "anonymous": false,
      "inputs": [
        {
          "indexed": false,
          "internalType": "bool",
          "name": "status",
          "type": "bool"
        }
      ],
      "name": "Tie",
      "type": "event"
    },
    {
      "anonymous": false,
      "inputs": [
        {
          "indexed": false,
          "internalType": "bool",
          "name": "status",
          "type": "bool"
        },
        {
          "indexed": false,
          "internalType": "address",
          "name": "caller",
          "type": "address"
        }
      ],
      "name": "Timeout",
      "type": "event"
    },
    {
      "anonymous": false,
      "inputs": [
        {
          "indexed": false,
          "internalType": "bool",
          "name": "status",
          "type": "bool"
        }
      ],
      "name": "joined",
      "type": "event"
    },
    {
      "anonymous": false,
      "inputs": [
        {
          "indexed": false,
          "internalType": "address",
          "name": "winner",
          "type": "address"
        }
      ],
      "name": "wins",
      "type": "event"
    },
    {
      "inputs": [],
      "name": "TIMEOUT",
      "outputs": [
        {
          "internalType": "uint256",
          "name": "",
          "type": "uint256"
        }
      ],
      "stateMutability": "view",
      "type": "function"
    },
    {
      "inputs": [],
      "name": "c1Hash",
      "outputs": [
        {
          "internalType": "bytes32",
          "name": "",
          "type": "bytes32"
        }
      ],
      "stateMutability": "view",
      "type": "function"
    },
    {
      "inputs": [],
      "name": "c2",
      "outputs": [
        {
          "internalType": "enum RPS.Move",
          "name": "",
          "type": "uint8"
        }
      ],
      "stateMutability": "view",
      "type": "function"
    },
    {
      "inputs": [],
      "name": "getJ1",
      "outputs": [
        {
          "internalType": "address",
          "name": "",
          "type": "address"
        }
      ],
      "stateMutability": "view",
      "type": "function"
    },
    {
      "inputs": [],
      "name": "getJ2",
      "outputs": [
        {
          "internalType": "address",
          "name": "",
          "type": "address"
        }
      ],
      "stateMutability": "view",
      "type": "function"
    },
    {
      "inputs": [],
      "name": "j1",
      "outputs": [
        {
          "internalType": "address",
          "name": "",
          "type": "address"
        }
      ],
      "stateMutability": "view",
      "type": "function"
    },
    {
      "inputs": [],
      "name": "j1Timeout",
      "outputs": [],
      "stateMutability": "nonpayable",
      "type": "function"
    },
    {
      "inputs": [],
      "name": "j2",
      "outputs": [
        {
          "internalType": "address",
          "name": "",
          "type": "address"
        }
      ],
      "stateMutability": "view",
      "type": "function"
    },
    {
      "inputs": [],
      "name": "j2Timeout",
      "outputs": [],
      "stateMutability": "nonpayable",
      "type": "function"
    },
    {
      "inputs": [],
      "name": "lastAction",
      "outputs": [
        {
          "internalType": "uint256",
          "name": "",
          "type": "uint256"
        }
      ],
      "stateMutability": "view",
      "type": "function"
    },
    {
      "inputs": [
        {
          "internalType": "enum RPS.Move",
          "name": "_c2",
          "type": "uint8"
        }
      ],
      "name": "play",
      "outputs": [],
      "stateMutability": "payable",
      "type": "function"
    },
    {
      "inputs": [
        {
          "internalType": "enum RPS.Move",
          "name": "_c1",
          "type": "uint8"
        },
        {
          "internalType": "uint256",
          "name": "_salt",
          "type": "uint256"
        }
      ],
      "name": "solve",
      "outputs": [],
      "stateMutability": "nonpayable",
      "type": "function"
    },
    {
      "inputs": [],
      "name": "stake",
      "outputs": [
        {
          "internalType": "uint256",
          "name": "",
          "type": "uint256"
        }
      ],
      "stateMutability": "view",
      "type": "function"
    }
  ],
  "bytecode": "0x608060405261012c60055560405162001aca38038062001aca83398181016040528101906200002f919062000135565b34600481905550336000806101000a81548173ffffffffffffffffffffffffffffffffffffffff021916908373ffffffffffffffffffffffffffffffffffffffff16021790555080600160006101000a81548173ffffffffffffffffffffffffffffffffffffffff021916908373ffffffffffffffffffffffffffffffffffffffff16021790555081600281905550426006819055507f6e7c98f0608d94ef6da86a58abbdd3fd8f7f180a561683b3084472c0884db47c6001604051620000f791906200018d565b60405180910390a150506200022d565b6000815190506200011881620001f9565b92915050565b6000815190506200012f8162000213565b92915050565b600080604083850312156200014f576200014e620001f4565b5b60006200015f858286016200011e565b9250506020620001728582860162000107565b9150509250929050565b6200018781620001be565b82525050565b6000602082019050620001a460008301846200017c565b92915050565b6000620001b782620001d4565b9050919050565b60008115159050919050565b6000819050919050565b600073ffffffffffffffffffffffffffffffffffffffff82169050919050565b600080fd5b6200020481620001aa565b81146200021057600080fd5b50565b6200021e81620001ca565b81146200022a57600080fd5b50565b61188d806200023d6000396000f3fe6080604052600436106100c25760003560e01c806380985af91161007f578063c37597c611610059578063c37597c614610225578063c839114214610250578063eb7dd9da14610267578063f56f48f214610292576100c2565b806380985af9146101a657806389f71d53146101d1578063a5ddec7c146101fc576100c2565b8063294914a4146100c75780633a4b66f1146100de57806342c591011461010957806348e257cb146101345780634d03e3d21461015f57806353a04b051461018a575b600080fd5b3480156100d357600080fd5b506100dc6102bd565b005b3480156100ea57600080fd5b506100f3610388565b6040516101009190611435565b60405180910390f35b34801561011557600080fd5b5061011e61038e565b60405161012b9190611260565b60405180910390f35b34801561014057600080fd5b506101496103b7565b60405161015691906112da565b60405180910390f35b34801561016b57600080fd5b506101746103ca565b60405161018191906112bf565b60405180910390f35b6101a4600480360381019061019f9190610fb8565b6103d0565b005b3480156101b257600080fd5b506101bb6105ed565b6040516101c89190611260565b60405180910390f35b3480156101dd57600080fd5b506101e6610613565b6040516101f39190611435565b60405180910390f35b34801561020857600080fd5b50610223600480360381019061021e9190610fe5565b610619565b005b34801561023157600080fd5b5061023a610cea565b6040516102479190611260565b60405180910390f35b34801561025c57600080fd5b50610265610d0e565b005b34801561027357600080fd5b5061027c610e4f565b6040516102899190611260565b60405180910390f35b34801561029e57600080fd5b506102a7610e79565b6040516102b49190611435565b60405180910390f35b600060058111156102d1576102d061163e565b5b600360009054906101000a900460ff1660058111156102f3576102f261163e565b5b146102fd57600080fd5b60055460065461030d919061146c565b421161031857600080fd5b60008054906101000a90505060006004819055507fe7e8a53e539ec3a31b72ff5c4c87bcba6de368e07c85cb0b0e96c4957d988a46600160008054906101000a900473ffffffffffffffffffffffffffffffffffffffff1660405161037e929190611296565b60405180910390a1565b60045481565b60008060009054906101000a900473ffffffffffffffffffffffffffffffffffffffff16905090565b600360009054906101000a900460ff1681565b60025481565b600060058111156103e4576103e361163e565b5b600360009054906101000a900460ff1660058111156104065761040561163e565b5b14610446576040517f08c379a000000000000000000000000000000000000000000000000000000000815260040161043d90611335565b60405180910390fd5b6000600581111561045a5761045961163e565b5b81600581111561046d5761046c61163e565b5b14156104ae576040517f08c379a00000000000000000000000000000000000000000000000000000000081526004016104a5906113b5565b60405180910390fd5b60045434146104f2576040517f08c379a00000000000000000000000000000000000000000000000000000000081526004016104e990611395565b60405180910390fd5b600160009054906101000a900473ffffffffffffffffffffffffffffffffffffffff1673ffffffffffffffffffffffffffffffffffffffff163373ffffffffffffffffffffffffffffffffffffffff1614610582576040517f08c379a0000000000000000000000000000000000000000000000000000000008152600401610579906112f5565b60405180910390fd5b80600360006101000a81548160ff021916908360058111156105a7576105a661163e565b5b0217905550426006819055507fa2a70329b817e57fa5d6165e012f2e50d9f343f61ae8bc8730073b95550c3e1c816040516105e291906112da565b60405180910390a150565b600160009054906101000a900473ffffffffffffffffffffffffffffffffffffffff1681565b60065481565b6000600581111561062d5761062c61163e565b5b8260058111156106405761063f61163e565b5b1415610681576040517f08c379a000000000000000000000000000000000000000000000000000000000815260040161067890611355565b60405180910390fd5b600060058111156106955761069461163e565b5b600360009054906101000a900460ff1660058111156106b7576106b661163e565b5b14156106f8576040517f08c379a00000000000000000000000000000000000000000000000000000000081526004016106ef906113d5565b60405180910390fd5b60008054906101000a900473ffffffffffffffffffffffffffffffffffffffff1673ffffffffffffffffffffffffffffffffffffffff163373ffffffffffffffffffffffffffffffffffffffff1614610786576040517f08c379a000000000000000000000000000000000000000000000000000000000815260040161077d90611375565b60405180910390fd5b600254828260405160200161079c92919061121f565b60405160208183030381529060405280519060200120146107f2576040517f08c379a00000000000000000000000000000000000000000000000000000000081526004016107e9906113f5565b60405180910390fd5b7f3b1a54291313e8d28a946c9c3ba86c6519a207b776cfbbd98c5c1f9dc504d51b8260405161082191906112da565b60405180910390a161084282600360009054906101000a900460ff16610e7f565b1561097f5760008060009054906101000a900473ffffffffffffffffffffffffffffffffffffffff1673ffffffffffffffffffffffffffffffffffffffff16600454600261089091906114c2565b60405161089c9061124b565b60006040518083038185875af1925050503d80600081146108d9576040519150601f19603f3d011682016040523d82523d6000602084013e6108de565b606091505b5050905080610922576040517f08c379a000000000000000000000000000000000000000000000000000000000815260040161091990611415565b60405180910390fd5b7f8047a97ac9efea27bb9b86a5928fa12f43ef92faec51097c05c33492196c936d60008054906101000a900473ffffffffffffffffffffffffffffffffffffffff166040516109719190611260565b60405180910390a150610cb3565b610998600360009054906101000a900460ff1683610e7f565b15610ad8576000600160009054906101000a900473ffffffffffffffffffffffffffffffffffffffff1673ffffffffffffffffffffffffffffffffffffffff1660045460026109e791906114c2565b6040516109f39061124b565b60006040518083038185875af1925050503d8060008114610a30576040519150601f19603f3d011682016040523d82523d6000602084013e610a35565b606091505b5050905080610a79576040517f08c379a0000000000000000000000000000000000000000000000000000000008152600401610a7090611415565b60405180910390fd5b7f8047a97ac9efea27bb9b86a5928fa12f43ef92faec51097c05c33492196c936d600160009054906101000a900473ffffffffffffffffffffffffffffffffffffffff16604051610aca9190611260565b60405180910390a150610cb2565b60008060009054906101000a900473ffffffffffffffffffffffffffffffffffffffff1673ffffffffffffffffffffffffffffffffffffffff16600454604051610b219061124b565b60006040518083038185875af1925050503d8060008114610b5e576040519150601f19603f3d011682016040523d82523d6000602084013e610b63565b606091505b5050905080610ba7576040517f08c379a0000000000000000000000000000000000000000000000000000000008152600401610b9e90611415565b60405180910390fd5b6000600160009054906101000a900473ffffffffffffffffffffffffffffffffffffffff1673ffffffffffffffffffffffffffffffffffffffff16600454604051610bf19061124b565b60006040518083038185875af1925050503d8060008114610c2e576040519150601f19603f3d011682016040523d82523d6000602084013e610c33565b606091505b5050905080610c77576040517f08c379a0000000000000000000000000000000000000000000000000000000008152600401610c6e90611415565b60405180910390fd5b7ff239a9124b7d57a3894cccde0ed348b91ff965d770757bf9d3ddf2108f8860426001604051610ca7919061127b565b60405180910390a150505b5b60006004819055506000600360006101000a81548160ff02191690836005811115610ce157610ce061163e565b5b02179055505050565b60008054906101000a900473ffffffffffffffffffffffffffffffffffffffff1681565b60006005811115610d2257610d2161163e565b5b600360009054906101000a900460ff166005811115610d4457610d4361163e565b5b1415610d85576040517f08c379a0000000000000000000000000000000000000000000000000000000008152600401610d7c90611315565b60405180910390fd5b600554600654610d95919061146c565b4211610da057600080fd5b600160009054906101000a900473ffffffffffffffffffffffffffffffffffffffff1673ffffffffffffffffffffffffffffffffffffffff166004546002610de891906114c2565b505060006004819055507fe7e8a53e539ec3a31b72ff5c4c87bcba6de368e07c85cb0b0e96c4957d988a4660018060009054906101000a900473ffffffffffffffffffffffffffffffffffffffff16604051610e45929190611296565b60405180910390a1565b6000600160009054906101000a900473ffffffffffffffffffffffffffffffffffffffff16905090565b60055481565b6000816005811115610e9457610e9361163e565b5b836005811115610ea757610ea661163e565b5b1415610eb65760009050610f88565b60006005811115610eca57610ec961163e565b5b836005811115610edd57610edc61163e565b5b1415610eec5760009050610f88565b6002826005811115610f0157610f0061163e565b5b610f0b91906115af565b6002846005811115610f2057610f1f61163e565b5b610f2a91906115af565b1415610f5e57816005811115610f4357610f4261163e565b5b836005811115610f5657610f5561163e565b5b109050610f88565b816005811115610f7157610f7061163e565b5b836005811115610f8457610f8361163e565b5b1190505b92915050565b600081359050610f9d81611830565b92915050565b600081359050610fb281611840565b92915050565b600060208284031215610fce57610fcd61166d565b5b6000610fdc84828501610f8e565b91505092915050565b60008060408385031215610ffc57610ffb61166d565b5b600061100a85828601610f8e565b925050602061101b85828601610fa3565b9150509250929050565b61102e8161151c565b82525050565b61103d8161152e565b82525050565b61104c8161153a565b82525050565b61105b81611581565b82525050565b61107261106d82611581565b61159d565b82525050565b600061108560158361145b565b91506110908261167f565b602082019050919050565b60006110a860118361145b565b91506110b3826116a8565b602082019050919050565b60006110cb60158361145b565b91506110d6826116d1565b602082019050919050565b60006110ee60178361145b565b91506110f9826116fa565b602082019050919050565b600061111160158361145b565b915061111c82611723565b602082019050919050565b6000611134600e8361145b565b915061113f8261174c565b602082019050919050565b6000611157600f8361145b565b915061116282611775565b602082019050919050565b600061117a600083611450565b91506111858261179e565b600082019050919050565b600061119d60178361145b565b91506111a8826117a1565b602082019050919050565b60006111c060128361145b565b91506111cb826117ca565b602082019050919050565b60006111e360128361145b565b91506111ee826117f3565b602082019050919050565b61120281611577565b82525050565b61121961121482611577565b611593565b82525050565b600061122b8285611061565b60018201915061123b8284611208565b6020820191508190509392505050565b60006112568261116d565b9150819050919050565b60006020820190506112756000830184611025565b92915050565b60006020820190506112906000830184611034565b92915050565b60006040820190506112ab6000830185611034565b6112b86020830184611025565b9392505050565b60006020820190506112d46000830184611043565b92915050565b60006020820190506112ef6000830184611052565b92915050565b6000602082019050818103600083015261130e81611078565b9050919050565b6000602082019050818103600083015261132e8161109b565b9050919050565b6000602082019050818103600083015261134e816110be565b9050919050565b6000602082019050818103600083015261136e816110e1565b9050919050565b6000602082019050818103600083015261138e81611104565b9050919050565b600060208201905081810360008301526113ae81611127565b9050919050565b600060208201905081810360008301526113ce8161114a565b9050919050565b600060208201905081810360008301526113ee81611190565b9050919050565b6000602082019050818103600083015261140e816111b3565b9050919050565b6000602082019050818103600083015261142e816111d6565b9050919050565b600060208201905061144a60008301846111f9565b92915050565b600081905092915050565b600082825260208201905092915050565b600061147782611577565b915061148283611577565b9250827fffffffffffffffffffffffffffffffffffffffffffffffffffffffffffffffff038211156114b7576114b66115e0565b5b828201905092915050565b60006114cd82611577565b91506114d883611577565b9250817fffffffffffffffffffffffffffffffffffffffffffffffffffffffffffffffff0483118215151615611511576115106115e0565b5b828202905092915050565b600061152782611557565b9050919050565b60008115159050919050565b6000819050919050565b60008190506115528261181c565b919050565b600073ffffffffffffffffffffffffffffffffffffffff82169050919050565b6000819050919050565b600061158c82611544565b9050919050565b6000819050919050565b60006115a882611672565b9050919050565b60006115ba82611577565b91506115c583611577565b9250826115d5576115d461160f565b5b828206905092915050565b7f4e487b7100000000000000000000000000000000000000000000000000000000600052601160045260246000fd5b7f4e487b7100000000000000000000000000000000000000000000000000000000600052601260045260246000fd5b7f4e487b7100000000000000000000000000000000000000000000000000000000600052602160045260246000fd5b600080fd5b60008160f81b9050919050565b7f4f6e6c79204a322063616e2063616c6c20746869730000000000000000000000600082015250565b7f4a3220686173206e6f7420706c61796564000000000000000000000000000000600082015250565b7f4a322068617320616c726561647920706c617965640000000000000000000000600082015250565b7f4a312073686f756c6420706c617920686973206d6f7665000000000000000000600082015250565b7f6f6e6c79204a312063616e2063616c6c20746869730000000000000000000000600082015250565b7f4769766520746865207374616b65000000000000000000000000000000000000600082015250565b7f53656c656374206f6e65206d6f76650000000000000000000000000000000000600082015250565b50565b7f4a322073686f756c6420706c617920686973206d6f7665000000000000000000600082015250565b7f4861736820646f65736e2774206d617463680000000000000000000000000000600082015250565b7f7472616e73616374696f6e206661696c65640000000000000000000000000000600082015250565b6006811061182d5761182c61163e565b5b50565b6006811061183d57600080fd5b50565b61184981611577565b811461185457600080fd5b5056fea26469706673582212203b4d4e7f62ab4b63ec43d5accdf4ff60ada30d4d9838c521a05fb0e36a74b6f064736f6c63430008060033",
  "linkReferences": {},
  "deployedLinkReferences": {}
}