{
  "_format": "hh-sol-artifact-1",
  "contractName": "RPS",
  "sourceName": "contracts/RPS.sol",
  "abi": [
    {
      "inputs": [
        {
          "internalType": "bytes32",
          "name": "_c1Hash",
          "type": "bytes32"
        },
        {
          "internalType": "address",
          "name": "_j2",
          "type": "address"
        }
      ],
      "stateMutability": "payable",
      "type": "constructor"
    },
    {
      "anonymous": false,
      "inputs": [
        {
          "indexed": false,
          "internalType": "bool",
          "name": "status",
          "type": "bool"
        }
      ],
      "name": "Game",
      "type": "event"
    },
    {
      "anonymous": false,
      "inputs": [
        {
          "indexed": false,
          "internalType": "enum RPS.Move",
          "name": "m",
          "type": "uint8"
        }
      ],
      "name": "J1Move",
      "type": "event"
    },
    {
      "anonymous": false,
      "inputs": [
        {
          "indexed": false,
          "internalType": "enum RPS.Move",
          "name": "m",
          "type": "uint8"
        }
      ],
      "name": "J2Move",
      "type": "event"
    },
    {
      "anonymous": false,
      "inputs": [
        {
          "indexed": false,
          "internalType": "bool",
          "name": "status",
          "type": "bool"
        }
      ],
      "name": "Tie",
      "type": "event"
    },
    {
      "anonymous": false,
      "inputs": [
        {
          "indexed": false,
          "internalType": "bool",
          "name": "status",
          "type": "bool"
        },
        {
          "indexed": false,
          "internalType": "address",
          "name": "caller",
          "type": "address"
        }
      ],
      "name": "Timeout",
      "type": "event"
    },
    {
      "anonymous": false,
      "inputs": [
        {
          "indexed": false,
          "internalType": "bool",
          "name": "status",
          "type": "bool"
        }
      ],
      "name": "join",
      "type": "event"
    },
    {
      "anonymous": false,
      "inputs": [
        {
          "indexed": false,
          "internalType": "address",
          "name": "winner",
          "type": "address"
        }
      ],
      "name": "wins",
      "type": "event"
    },
    {
      "inputs": [],
      "name": "Join",
      "outputs": [],
      "stateMutability": "nonpayable",
      "type": "function"
    },
    {
      "inputs": [],
      "name": "TIMEOUT",
      "outputs": [
        {
          "internalType": "uint256",
          "name": "",
          "type": "uint256"
        }
      ],
      "stateMutability": "view",
      "type": "function"
    },
    {
      "inputs": [],
      "name": "c1Hash",
      "outputs": [
        {
          "internalType": "bytes32",
          "name": "",
          "type": "bytes32"
        }
      ],
      "stateMutability": "view",
      "type": "function"
    },
    {
      "inputs": [],
      "name": "c2",
      "outputs": [
        {
          "internalType": "enum RPS.Move",
          "name": "",
          "type": "uint8"
        }
      ],
      "stateMutability": "view",
      "type": "function"
    },
    {
      "inputs": [],
      "name": "getJ1",
      "outputs": [
        {
          "internalType": "address",
          "name": "",
          "type": "address"
        }
      ],
      "stateMutability": "view",
      "type": "function"
    },
    {
      "inputs": [],
      "name": "getJ2",
      "outputs": [
        {
          "internalType": "address",
          "name": "",
          "type": "address"
        }
      ],
      "stateMutability": "view",
      "type": "function"
    },
    {
      "inputs": [],
      "name": "j1",
      "outputs": [
        {
          "internalType": "address",
          "name": "",
          "type": "address"
        }
      ],
      "stateMutability": "view",
      "type": "function"
    },
    {
      "inputs": [],
      "name": "j1Timeout",
      "outputs": [],
      "stateMutability": "nonpayable",
      "type": "function"
    },
    {
      "inputs": [],
      "name": "j2",
      "outputs": [
        {
          "internalType": "address",
          "name": "",
          "type": "address"
        }
      ],
      "stateMutability": "view",
      "type": "function"
    },
    {
      "inputs": [],
      "name": "j2Timeout",
      "outputs": [],
      "stateMutability": "nonpayable",
      "type": "function"
    },
    {
      "inputs": [],
      "name": "lastAction",
      "outputs": [
        {
          "internalType": "uint256",
          "name": "",
          "type": "uint256"
        }
      ],
      "stateMutability": "view",
      "type": "function"
    },
    {
      "inputs": [
        {
          "internalType": "enum RPS.Move",
          "name": "_c2",
          "type": "uint8"
        }
      ],
      "name": "play",
      "outputs": [],
      "stateMutability": "payable",
      "type": "function"
    },
    {
      "inputs": [
        {
          "internalType": "enum RPS.Move",
          "name": "_c1",
          "type": "uint8"
        },
        {
          "internalType": "uint256",
          "name": "_salt",
          "type": "uint256"
        }
      ],
      "name": "solve",
      "outputs": [],
      "stateMutability": "nonpayable",
      "type": "function"
    },
    {
      "inputs": [],
      "name": "stake",
      "outputs": [
        {
          "internalType": "uint256",
          "name": "",
          "type": "uint256"
        }
      ],
      "stateMutability": "view",
      "type": "function"
    }
  ],
  "bytecode": "0x608060405261012c60055560405162001d1038038062001d1083398181016040528101906200002f919062000135565b34600481905550336000806101000a81548173ffffffffffffffffffffffffffffffffffffffff021916908373ffffffffffffffffffffffffffffffffffffffff16021790555080600160006101000a81548173ffffffffffffffffffffffffffffffffffffffff021916908373ffffffffffffffffffffffffffffffffffffffff16021790555081600281905550426006819055507f6e7c98f0608d94ef6da86a58abbdd3fd8f7f180a561683b3084472c0884db47c6001604051620000f791906200018d565b60405180910390a150506200022d565b6000815190506200011881620001f9565b92915050565b6000815190506200012f8162000213565b92915050565b600080604083850312156200014f576200014e620001f4565b5b60006200015f858286016200011e565b9250506020620001728582860162000107565b9150509250929050565b6200018781620001be565b82525050565b6000602082019050620001a460008301846200017c565b92915050565b6000620001b782620001d4565b9050919050565b60008115159050919050565b6000819050919050565b600073ffffffffffffffffffffffffffffffffffffffff82169050919050565b600080fd5b6200020481620001aa565b81146200021057600080fd5b50565b6200021e81620001ca565b81146200022a57600080fd5b50565b611ad3806200023d6000396000f3fe6080604052600436106100dd5760003560e01c806380985af91161007f578063c37597c611610059578063c37597c614610257578063c839114214610282578063eb7dd9da14610299578063f56f48f2146102c4576100dd565b806380985af9146101d857806389f71d5314610203578063a5ddec7c1461022e576100dd565b806348e257cb116100bb57806348e257cb1461014f5780634d03e3d21461017a57806353a04b05146101a5578063630b0dbf146101c1576100dd565b8063294914a4146100e25780633a4b66f1146100f957806342c5910114610124575b600080fd5b3480156100ee57600080fd5b506100f76102ef565b005b34801561010557600080fd5b5061010e6103ba565b60405161011b9190611629565b60405180910390f35b34801561013057600080fd5b506101396103c0565b6040516101469190611414565b60405180910390f35b34801561015b57600080fd5b506101646103e9565b604051610171919061148e565b60405180910390f35b34801561018657600080fd5b5061018f6103fc565b60405161019c9190611473565b60405180910390f35b6101bf60048036038101906101ba9190611126565b610402565b005b3480156101cd57600080fd5b506101d661061f565b005b3480156101e457600080fd5b506101ed610740565b6040516101fa9190611414565b60405180910390f35b34801561020f57600080fd5b50610218610766565b6040516102259190611629565b60405180910390f35b34801561023a57600080fd5b5061025560048036038101906102509190611153565b61076c565b005b34801561026357600080fd5b5061026c610e58565b6040516102799190611414565b60405180910390f35b34801561028e57600080fd5b50610297610e7c565b005b3480156102a557600080fd5b506102ae610fbd565b6040516102bb9190611414565b60405180910390f35b3480156102d057600080fd5b506102d9610fe7565b6040516102e69190611629565b60405180910390f35b6000600581111561030357610302611832565b5b600360009054906101000a900460ff16600581111561032557610324611832565b5b1461032f57600080fd5b60055460065461033f9190611660565b421161034a57600080fd5b60008054906101000a90505060006004819055507fe7e8a53e539ec3a31b72ff5c4c87bcba6de368e07c85cb0b0e96c4957d988a46600160008054906101000a900473ffffffffffffffffffffffffffffffffffffffff166040516103b092919061144a565b60405180910390a1565b60045481565b60008060009054906101000a900473ffffffffffffffffffffffffffffffffffffffff16905090565b600360009054906101000a900460ff1681565b60025481565b6000600581111561041657610415611832565b5b600360009054906101000a900460ff16600581111561043857610437611832565b5b14610478576040517f08c379a000000000000000000000000000000000000000000000000000000000815260040161046f906114e9565b60405180910390fd5b6000600581111561048c5761048b611832565b5b81600581111561049f5761049e611832565b5b14156104e0576040517f08c379a00000000000000000000000000000000000000000000000000000000081526004016104d790611569565b60405180910390fd5b6004543414610524576040517f08c379a000000000000000000000000000000000000000000000000000000000815260040161051b90611549565b60405180910390fd5b600160009054906101000a900473ffffffffffffffffffffffffffffffffffffffff1673ffffffffffffffffffffffffffffffffffffffff163373ffffffffffffffffffffffffffffffffffffffff16146105b4576040517f08c379a00000000000000000000000000000000000000000000000000000000081526004016105ab906114a9565b60405180910390fd5b80600360006101000a81548160ff021916908360058111156105d9576105d8611832565b5b0217905550426006819055507fa2a70329b817e57fa5d6165e012f2e50d9f343f61ae8bc8730073b95550c3e1c81604051610614919061148e565b60405180910390a150565b600160009054906101000a900473ffffffffffffffffffffffffffffffffffffffff1673ffffffffffffffffffffffffffffffffffffffff163373ffffffffffffffffffffffffffffffffffffffff16146106af576040517f08c379a00000000000000000000000000000000000000000000000000000000081526004016106a690611589565b60405180910390fd5b60011515600760009054906101000a900460ff1615151415610706576040517f08c379a00000000000000000000000000000000000000000000000000000000081526004016106fd906115c9565b60405180910390fd5b7fe2c055930f92b96a8c455c647c97d8c543bc2fa337e5c772765268dc19d45a5e6001604051610736919061142f565b60405180910390a1565b600160009054906101000a900473ffffffffffffffffffffffffffffffffffffffff1681565b60065481565b600060058111156107805761077f611832565b5b82600581111561079357610792611832565b5b14156107d4576040517f08c379a00000000000000000000000000000000000000000000000000000000081526004016107cb90611509565b60405180910390fd5b600060058111156107e8576107e7611832565b5b600360009054906101000a900460ff16600581111561080a57610809611832565b5b141561084b576040517f08c379a0000000000000000000000000000000000000000000000000000000008152600401610842906115a9565b60405180910390fd5b60008054906101000a900473ffffffffffffffffffffffffffffffffffffffff1673ffffffffffffffffffffffffffffffffffffffff163373ffffffffffffffffffffffffffffffffffffffff16146108d9576040517f08c379a00000000000000000000000000000000000000000000000000000000081526004016108d090611529565b60405180910390fd5b60025482826040516020016108ef9291906113d3565b6040516020818303038152906040528051906020012014610945576040517f08c379a000000000000000000000000000000000000000000000000000000000815260040161093c906115e9565b60405180910390fd5b7f3b1a54291313e8d28a946c9c3ba86c6519a207b776cfbbd98c5c1f9dc504d51b82604051610974919061148e565b60405180910390a161099582600360009054906101000a900460ff16610fed565b15610ad25760008060009054906101000a900473ffffffffffffffffffffffffffffffffffffffff1673ffffffffffffffffffffffffffffffffffffffff1660045460026109e391906116b6565b6040516109ef906113ff565b60006040518083038185875af1925050503d8060008114610a2c576040519150601f19603f3d011682016040523d82523d6000602084013e610a31565b606091505b5050905080610a75576040517f08c379a0000000000000000000000000000000000000000000000000000000008152600401610a6c90611609565b60405180910390fd5b7f8047a97ac9efea27bb9b86a5928fa12f43ef92faec51097c05c33492196c936d60008054906101000a900473ffffffffffffffffffffffffffffffffffffffff16604051610ac49190611414565b60405180910390a150610e06565b610aeb600360009054906101000a900460ff1683610fed565b15610c2b576000600160009054906101000a900473ffffffffffffffffffffffffffffffffffffffff1673ffffffffffffffffffffffffffffffffffffffff166004546002610b3a91906116b6565b604051610b46906113ff565b60006040518083038185875af1925050503d8060008114610b83576040519150601f19603f3d011682016040523d82523d6000602084013e610b88565b606091505b5050905080610bcc576040517f08c379a0000000000000000000000000000000000000000000000000000000008152600401610bc390611609565b60405180910390fd5b7f8047a97ac9efea27bb9b86a5928fa12f43ef92faec51097c05c33492196c936d600160009054906101000a900473ffffffffffffffffffffffffffffffffffffffff16604051610c1d9190611414565b60405180910390a150610e05565b60008060009054906101000a900473ffffffffffffffffffffffffffffffffffffffff1673ffffffffffffffffffffffffffffffffffffffff16600454604051610c74906113ff565b60006040518083038185875af1925050503d8060008114610cb1576040519150601f19603f3d011682016040523d82523d6000602084013e610cb6565b606091505b5050905080610cfa576040517f08c379a0000000000000000000000000000000000000000000000000000000008152600401610cf190611609565b60405180910390fd5b6000600160009054906101000a900473ffffffffffffffffffffffffffffffffffffffff1673ffffffffffffffffffffffffffffffffffffffff16600454604051610d44906113ff565b60006040518083038185875af1925050503d8060008114610d81576040519150601f19603f3d011682016040523d82523d6000602084013e610d86565b606091505b5050905080610dca576040517f08c379a0000000000000000000000000000000000000000000000000000000008152600401610dc190611609565b60405180910390fd5b7ff239a9124b7d57a3894cccde0ed348b91ff965d770757bf9d3ddf2108f8860426001604051610dfa919061142f565b60405180910390a150505b5b60006004819055506000600360006101000a81548160ff02191690836005811115610e3457610e33611832565b5b02179055506001600760006101000a81548160ff0219169083151502179055505050565b60008054906101000a900473ffffffffffffffffffffffffffffffffffffffff1681565b60006005811115610e9057610e8f611832565b5b600360009054906101000a900460ff166005811115610eb257610eb1611832565b5b1415610ef3576040517f08c379a0000000000000000000000000000000000000000000000000000000008152600401610eea906114c9565b60405180910390fd5b600554600654610f039190611660565b4211610f0e57600080fd5b600160009054906101000a900473ffffffffffffffffffffffffffffffffffffffff1673ffffffffffffffffffffffffffffffffffffffff166004546002610f5691906116b6565b505060006004819055507fe7e8a53e539ec3a31b72ff5c4c87bcba6de368e07c85cb0b0e96c4957d988a4660018060009054906101000a900473ffffffffffffffffffffffffffffffffffffffff16604051610fb392919061144a565b60405180910390a1565b6000600160009054906101000a900473ffffffffffffffffffffffffffffffffffffffff16905090565b60055481565b600081600581111561100257611001611832565b5b83600581111561101557611014611832565b5b141561102457600090506110f6565b6000600581111561103857611037611832565b5b83600581111561104b5761104a611832565b5b141561105a57600090506110f6565b600282600581111561106f5761106e611832565b5b61107991906117a3565b600284600581111561108e5761108d611832565b5b61109891906117a3565b14156110cc578160058111156110b1576110b0611832565b5b8360058111156110c4576110c3611832565b5b1090506110f6565b8160058111156110df576110de611832565b5b8360058111156110f2576110f1611832565b5b1190505b92915050565b60008135905061110b81611a76565b92915050565b60008135905061112081611a86565b92915050565b60006020828403121561113c5761113b611861565b5b600061114a848285016110fc565b91505092915050565b6000806040838503121561116a57611169611861565b5b6000611178858286016110fc565b925050602061118985828601611111565b9150509250929050565b61119c81611710565b82525050565b6111ab81611722565b82525050565b6111ba8161172e565b82525050565b6111c981611775565b82525050565b6111e06111db82611775565b611791565b82525050565b60006111f360158361164f565b91506111fe82611873565b602082019050919050565b600061121660118361164f565b91506112218261189c565b602082019050919050565b600061123960158361164f565b9150611244826118c5565b602082019050919050565b600061125c60178361164f565b9150611267826118ee565b602082019050919050565b600061127f60158361164f565b915061128a82611917565b602082019050919050565b60006112a2600e8361164f565b91506112ad82611940565b602082019050919050565b60006112c5600f8361164f565b91506112d082611969565b602082019050919050565b60006112e8601e8361164f565b91506112f382611992565b602082019050919050565b600061130b600083611644565b9150611316826119bb565b600082019050919050565b600061132e60178361164f565b9150611339826119be565b602082019050919050565b600061135160188361164f565b915061135c826119e7565b602082019050919050565b600061137460128361164f565b915061137f82611a10565b602082019050919050565b600061139760128361164f565b91506113a282611a39565b602082019050919050565b6113b68161176b565b82525050565b6113cd6113c88261176b565b611787565b82525050565b60006113df82856111cf565b6001820191506113ef82846113bc565b6020820191508190509392505050565b600061140a826112fe565b9150819050919050565b60006020820190506114296000830184611193565b92915050565b600060208201905061144460008301846111a2565b92915050565b600060408201905061145f60008301856111a2565b61146c6020830184611193565b9392505050565b600060208201905061148860008301846111b1565b92915050565b60006020820190506114a360008301846111c0565b92915050565b600060208201905081810360008301526114c2816111e6565b9050919050565b600060208201905081810360008301526114e281611209565b9050919050565b600060208201905081810360008301526115028161122c565b9050919050565b600060208201905081810360008301526115228161124f565b9050919050565b6000602082019050818103600083015261154281611272565b9050919050565b6000602082019050818103600083015261156281611295565b9050919050565b60006020820190508181036000830152611582816112b8565b9050919050565b600060208201905081810360008301526115a2816112db565b9050919050565b600060208201905081810360008301526115c281611321565b9050919050565b600060208201905081810360008301526115e281611344565b9050919050565b6000602082019050818103600083015261160281611367565b9050919050565b600060208201905081810360008301526116228161138a565b9050919050565b600060208201905061163e60008301846113ad565b92915050565b600081905092915050565b600082825260208201905092915050565b600061166b8261176b565b91506116768361176b565b9250827fffffffffffffffffffffffffffffffffffffffffffffffffffffffffffffffff038211156116ab576116aa6117d4565b5b828201905092915050565b60006116c18261176b565b91506116cc8361176b565b9250817fffffffffffffffffffffffffffffffffffffffffffffffffffffffffffffffff0483118215151615611705576117046117d4565b5b828202905092915050565b600061171b8261174b565b9050919050565b60008115159050919050565b6000819050919050565b600081905061174682611a62565b919050565b600073ffffffffffffffffffffffffffffffffffffffff82169050919050565b6000819050919050565b600061178082611738565b9050919050565b6000819050919050565b600061179c82611866565b9050919050565b60006117ae8261176b565b91506117b98361176b565b9250826117c9576117c8611803565b5b828206905092915050565b7f4e487b7100000000000000000000000000000000000000000000000000000000600052601160045260246000fd5b7f4e487b7100000000000000000000000000000000000000000000000000000000600052601260045260246000fd5b7f4e487b7100000000000000000000000000000000000000000000000000000000600052602160045260246000fd5b600080fd5b60008160f81b9050919050565b7f4f6e6c79204a322063616e2063616c6c20746869730000000000000000000000600082015250565b7f4a3220686173206e6f7420706c61796564000000000000000000000000000000600082015250565b7f4a322068617320616c726561647920706c617965640000000000000000000000600082015250565b7f4a312073686f756c6420706c617920686973206d6f7665000000000000000000600082015250565b7f6f6e6c79204a312063616e2063616c6c20746869730000000000000000000000600082015250565b7f4769766520746865207374616b65000000000000000000000000000000000000600082015250565b7f53656c656374206f6e65206d6f76650000000000000000000000000000000000600082015250565b7f596f752063616e2774206a6f696e206174207468697320616464726573730000600082015250565b50565b7f4a322073686f756c6420706c617920686973206d6f7665000000000000000000600082015250565b7f47616d6520697320616c72656164792066696e69736865640000000000000000600082015250565b7f4861736820646f65736e2774206d617463680000000000000000000000000000600082015250565b7f7472616e73616374696f6e206661696c65640000000000000000000000000000600082015250565b60068110611a7357611a72611832565b5b50565b60068110611a8357600080fd5b50565b611a8f8161176b565b8114611a9a57600080fd5b5056fea2646970667358221220d17106e2c2cf0acaeafa857caa1151ee6b0c0b8a8866b7211d49b1ba86a2b86b64736f6c63430008060033",
  "linkReferences": {},
  "deployedLinkReferences": {}
}