{
  "_format": "hh-sol-artifact-1",
  "contractName": "RPS",
  "sourceName": "contracts/RPS.sol",
  "abi": [
    {
      "inputs": [
        {
          "internalType": "bytes32",
          "name": "_c1Hash",
          "type": "bytes32"
        },
        {
          "internalType": "address",
          "name": "_j2",
          "type": "address"
        }
      ],
      "stateMutability": "payable",
      "type": "constructor"
    },
    {
      "anonymous": false,
      "inputs": [
        {
          "indexed": false,
          "internalType": "bool",
          "name": "status",
          "type": "bool"
        }
      ],
      "name": "Game",
      "type": "event"
    },
    {
      "anonymous": false,
      "inputs": [
        {
          "indexed": false,
          "internalType": "enum RPS.Move",
          "name": "m",
          "type": "uint8"
        }
      ],
      "name": "J2Move",
      "type": "event"
    },
    {
      "anonymous": false,
      "inputs": [
        {
          "indexed": false,
          "internalType": "bool",
          "name": "status",
          "type": "bool"
        }
      ],
      "name": "Tie",
      "type": "event"
    },
    {
      "anonymous": false,
      "inputs": [
        {
          "indexed": false,
          "internalType": "bool",
          "name": "status",
          "type": "bool"
        },
        {
          "indexed": false,
          "internalType": "address",
          "name": "caller",
          "type": "address"
        }
      ],
      "name": "Timeout",
      "type": "event"
    },
    {
      "anonymous": false,
      "inputs": [
        {
          "indexed": false,
          "internalType": "bool",
          "name": "status",
          "type": "bool"
        }
      ],
      "name": "joined",
      "type": "event"
    },
    {
      "anonymous": false,
      "inputs": [
        {
          "indexed": false,
          "internalType": "address",
          "name": "winner",
          "type": "address"
        }
      ],
      "name": "wins",
      "type": "event"
    },
    {
      "inputs": [],
      "name": "TIMEOUT",
      "outputs": [
        {
          "internalType": "uint256",
          "name": "",
          "type": "uint256"
        }
      ],
      "stateMutability": "view",
      "type": "function"
    },
    {
      "inputs": [],
      "name": "c1Hash",
      "outputs": [
        {
          "internalType": "bytes32",
          "name": "",
          "type": "bytes32"
        }
      ],
      "stateMutability": "view",
      "type": "function"
    },
    {
      "inputs": [],
      "name": "c2",
      "outputs": [
        {
          "internalType": "enum RPS.Move",
          "name": "",
          "type": "uint8"
        }
      ],
      "stateMutability": "view",
      "type": "function"
    },
    {
      "inputs": [],
      "name": "getJ1",
      "outputs": [
        {
          "internalType": "address",
          "name": "",
          "type": "address"
        }
      ],
      "stateMutability": "view",
      "type": "function"
    },
    {
      "inputs": [],
      "name": "getJ2",
      "outputs": [
        {
          "internalType": "address",
          "name": "",
          "type": "address"
        }
      ],
      "stateMutability": "nonpayable",
      "type": "function"
    },
    {
      "inputs": [],
      "name": "getTimer",
      "outputs": [
        {
          "internalType": "uint256",
          "name": "",
          "type": "uint256"
        }
      ],
      "stateMutability": "view",
      "type": "function"
    },
    {
      "inputs": [],
      "name": "j1",
      "outputs": [
        {
          "internalType": "address",
          "name": "",
          "type": "address"
        }
      ],
      "stateMutability": "view",
      "type": "function"
    },
    {
      "inputs": [],
      "name": "j1Timeout",
      "outputs": [],
      "stateMutability": "nonpayable",
      "type": "function"
    },
    {
      "inputs": [],
      "name": "j2",
      "outputs": [
        {
          "internalType": "address",
          "name": "",
          "type": "address"
        }
      ],
      "stateMutability": "view",
      "type": "function"
    },
    {
      "inputs": [],
      "name": "j2Timeout",
      "outputs": [],
      "stateMutability": "nonpayable",
      "type": "function"
    },
    {
      "inputs": [],
      "name": "lastAction",
      "outputs": [
        {
          "internalType": "uint256",
          "name": "",
          "type": "uint256"
        }
      ],
      "stateMutability": "view",
      "type": "function"
    },
    {
      "inputs": [
        {
          "internalType": "enum RPS.Move",
          "name": "_c2",
          "type": "uint8"
        }
      ],
      "name": "play",
      "outputs": [],
      "stateMutability": "payable",
      "type": "function"
    },
    {
      "inputs": [
        {
          "internalType": "enum RPS.Move",
          "name": "_c1",
          "type": "uint8"
        },
        {
          "internalType": "uint256",
          "name": "_salt",
          "type": "uint256"
        }
      ],
      "name": "solve",
      "outputs": [],
      "stateMutability": "nonpayable",
      "type": "function"
    },
    {
      "inputs": [],
      "name": "stake",
      "outputs": [
        {
          "internalType": "uint256",
          "name": "",
          "type": "uint256"
        }
      ],
      "stateMutability": "view",
      "type": "function"
    }
  ],
  "bytecode": "0x608060405261012c60055560405162001c5638038062001c5683398181016040528101906200002f919062000135565b34600481905550336000806101000a81548173ffffffffffffffffffffffffffffffffffffffff021916908373ffffffffffffffffffffffffffffffffffffffff16021790555080600160006101000a81548173ffffffffffffffffffffffffffffffffffffffff021916908373ffffffffffffffffffffffffffffffffffffffff16021790555081600281905550426006819055507f6e7c98f0608d94ef6da86a58abbdd3fd8f7f180a561683b3084472c0884db47c6001604051620000f791906200018d565b60405180910390a150506200022d565b6000815190506200011881620001f9565b92915050565b6000815190506200012f8162000213565b92915050565b600080604083850312156200014f576200014e620001f4565b5b60006200015f858286016200011e565b9250506020620001728582860162000107565b9150509250929050565b6200018781620001be565b82525050565b6000602082019050620001a460008301846200017c565b92915050565b6000620001b782620001d4565b9050919050565b60008115159050919050565b6000819050919050565b600073ffffffffffffffffffffffffffffffffffffffff82169050919050565b600080fd5b6200020481620001aa565b81146200021057600080fd5b50565b6200021e81620001ca565b81146200022a57600080fd5b50565b611a19806200023d6000396000f3fe6080604052600436106100dd5760003560e01c806389f71d531161007f578063c37597c611610059578063c37597c61461026b578063c839114214610296578063eb7dd9da146102ad578063f56f48f2146102d8576100dd565b806389f71d53146101ec578063a5ddec7c14610217578063a7203d3414610240576100dd565b806348e257cb116100bb57806348e257cb1461014f5780634d03e3d21461017a57806353a04b05146101a557806380985af9146101c1576100dd565b8063294914a4146100e25780633a4b66f1146100f957806342c5910114610124575b600080fd5b3480156100ee57600080fd5b506100f7610303565b005b34801561010557600080fd5b5061010e6103ce565b60405161011b9190611564565b60405180910390f35b34801561013057600080fd5b506101396103d4565b604051610146919061136f565b60405180910390f35b34801561015b57600080fd5b506101646103fd565b60405161017191906113e9565b60405180910390f35b34801561018657600080fd5b5061018f610410565b60405161019c91906113ce565b60405180910390f35b6101bf60048036038101906101ba91906110a4565b610416565b005b3480156101cd57600080fd5b506101d6610633565b6040516101e3919061136f565b60405180910390f35b3480156101f857600080fd5b50610201610659565b60405161020e9190611564565b60405180910390f35b34801561022357600080fd5b5061023e600480360381019061023991906110d1565b61065f565b005b34801561024c57600080fd5b50610255610cf9565b6040516102629190611564565b60405180910390f35b34801561027757600080fd5b50610280610d0e565b60405161028d919061136f565b60405180910390f35b3480156102a257600080fd5b506102ab610d32565b005b3480156102b957600080fd5b506102c2610e73565b6040516102cf919061136f565b60405180910390f35b3480156102e457600080fd5b506102ed610f65565b6040516102fa9190611564565b60405180910390f35b60006005811115610317576103166117a1565b5b600360009054906101000a900460ff166005811115610339576103386117a1565b5b1461034357600080fd5b600554600654610353919061159b565b421161035e57600080fd5b60008054906101000a90505060006004819055507fe7e8a53e539ec3a31b72ff5c4c87bcba6de368e07c85cb0b0e96c4957d988a46600160008054906101000a900473ffffffffffffffffffffffffffffffffffffffff166040516103c49291906113a5565b60405180910390a1565b60045481565b60008060009054906101000a900473ffffffffffffffffffffffffffffffffffffffff16905090565b600360009054906101000a900460ff1681565b60025481565b6000600581111561042a576104296117a1565b5b600360009054906101000a900460ff16600581111561044c5761044b6117a1565b5b1461048c576040517f08c379a000000000000000000000000000000000000000000000000000000000815260040161048390611464565b60405180910390fd5b600060058111156104a05761049f6117a1565b5b8160058111156104b3576104b26117a1565b5b14156104f4576040517f08c379a00000000000000000000000000000000000000000000000000000000081526004016104eb906114e4565b60405180910390fd5b6004543414610538576040517f08c379a000000000000000000000000000000000000000000000000000000000815260040161052f906114c4565b60405180910390fd5b600160009054906101000a900473ffffffffffffffffffffffffffffffffffffffff1673ffffffffffffffffffffffffffffffffffffffff163373ffffffffffffffffffffffffffffffffffffffff16146105c8576040517f08c379a00000000000000000000000000000000000000000000000000000000081526004016105bf90611424565b60405180910390fd5b80600360006101000a81548160ff021916908360058111156105ed576105ec6117a1565b5b0217905550426006819055507fa2a70329b817e57fa5d6165e012f2e50d9f343f61ae8bc8730073b95550c3e1c8160405161062891906113e9565b60405180910390a150565b600160009054906101000a900473ffffffffffffffffffffffffffffffffffffffff1681565b60065481565b60006005811115610673576106726117a1565b5b826005811115610686576106856117a1565b5b14156106c7576040517f08c379a00000000000000000000000000000000000000000000000000000000081526004016106be90611484565b60405180910390fd5b600060058111156106db576106da6117a1565b5b600360009054906101000a900460ff1660058111156106fd576106fc6117a1565b5b141561073e576040517f08c379a000000000000000000000000000000000000000000000000000000000815260040161073590611504565b60405180910390fd5b60008054906101000a900473ffffffffffffffffffffffffffffffffffffffff1673ffffffffffffffffffffffffffffffffffffffff163373ffffffffffffffffffffffffffffffffffffffff16146107cc576040517f08c379a00000000000000000000000000000000000000000000000000000000081526004016107c3906114a4565b60405180910390fd5b60025482826040516020016107e292919061132e565b6040516020818303038152906040528051906020012014610838576040517f08c379a000000000000000000000000000000000000000000000000000000000815260040161082f90611404565b60405180910390fd5b61085182600360009054906101000a900460ff16610f6b565b1561098e5760008060009054906101000a900473ffffffffffffffffffffffffffffffffffffffff1673ffffffffffffffffffffffffffffffffffffffff16600454600261089f91906115f1565b6040516108ab9061135a565b60006040518083038185875af1925050503d80600081146108e8576040519150601f19603f3d011682016040523d82523d6000602084013e6108ed565b606091505b5050905080610931576040517f08c379a000000000000000000000000000000000000000000000000000000000815260040161092890611524565b60405180910390fd5b7f8047a97ac9efea27bb9b86a5928fa12f43ef92faec51097c05c33492196c936d60008054906101000a900473ffffffffffffffffffffffffffffffffffffffff16604051610980919061136f565b60405180910390a150610cc2565b6109a7600360009054906101000a900460ff1683610f6b565b15610ae7576000600160009054906101000a900473ffffffffffffffffffffffffffffffffffffffff1673ffffffffffffffffffffffffffffffffffffffff1660045460026109f691906115f1565b604051610a029061135a565b60006040518083038185875af1925050503d8060008114610a3f576040519150601f19603f3d011682016040523d82523d6000602084013e610a44565b606091505b5050905080610a88576040517f08c379a0000000000000000000000000000000000000000000000000000000008152600401610a7f90611524565b60405180910390fd5b7f8047a97ac9efea27bb9b86a5928fa12f43ef92faec51097c05c33492196c936d600160009054906101000a900473ffffffffffffffffffffffffffffffffffffffff16604051610ad9919061136f565b60405180910390a150610cc1565b60008060009054906101000a900473ffffffffffffffffffffffffffffffffffffffff1673ffffffffffffffffffffffffffffffffffffffff16600454604051610b309061135a565b60006040518083038185875af1925050503d8060008114610b6d576040519150601f19603f3d011682016040523d82523d6000602084013e610b72565b606091505b5050905080610bb6576040517f08c379a0000000000000000000000000000000000000000000000000000000008152600401610bad90611524565b60405180910390fd5b6000600160009054906101000a900473ffffffffffffffffffffffffffffffffffffffff1673ffffffffffffffffffffffffffffffffffffffff16600454604051610c009061135a565b60006040518083038185875af1925050503d8060008114610c3d576040519150601f19603f3d011682016040523d82523d6000602084013e610c42565b606091505b5050905080610c86576040517f08c379a0000000000000000000000000000000000000000000000000000000008152600401610c7d90611524565b60405180910390fd5b7ff239a9124b7d57a3894cccde0ed348b91ff965d770757bf9d3ddf2108f8860426001604051610cb6919061138a565b60405180910390a150505b5b60006004819055506000600360006101000a81548160ff02191690836005811115610cf057610cef6117a1565b5b02179055505050565b600060065442610d09919061164b565b905090565b60008054906101000a900473ffffffffffffffffffffffffffffffffffffffff1681565b60006005811115610d4657610d456117a1565b5b600360009054906101000a900460ff166005811115610d6857610d676117a1565b5b1415610da9576040517f08c379a0000000000000000000000000000000000000000000000000000000008152600401610da090611444565b60405180910390fd5b600554600654610db9919061159b565b4211610dc457600080fd5b600160009054906101000a900473ffffffffffffffffffffffffffffffffffffffff1673ffffffffffffffffffffffffffffffffffffffff166004546002610e0c91906115f1565b505060006004819055507fe7e8a53e539ec3a31b72ff5c4c87bcba6de368e07c85cb0b0e96c4957d988a4660018060009054906101000a900473ffffffffffffffffffffffffffffffffffffffff16604051610e699291906113a5565b60405180910390a1565b6000600160009054906101000a900473ffffffffffffffffffffffffffffffffffffffff1673ffffffffffffffffffffffffffffffffffffffff163373ffffffffffffffffffffffffffffffffffffffff1614610f05576040517f08c379a0000000000000000000000000000000000000000000000000000000008152600401610efc90611544565b60405180910390fd5b7ff1eefd2c09cbdb435f3a4073f0ecf7e72ce631eff1381654287f3ca94487e5116001604051610f35919061138a565b60405180910390a1600160009054906101000a900473ffffffffffffffffffffffffffffffffffffffff16905090565b60055481565b6000816005811115610f8057610f7f6117a1565b5b836005811115610f9357610f926117a1565b5b1415610fa25760009050611074565b60006005811115610fb657610fb56117a1565b5b836005811115610fc957610fc86117a1565b5b1415610fd85760009050611074565b6002826005811115610fed57610fec6117a1565b5b610ff79190611712565b600284600581111561100c5761100b6117a1565b5b6110169190611712565b141561104a5781600581111561102f5761102e6117a1565b5b836005811115611042576110416117a1565b5b109050611074565b81600581111561105d5761105c6117a1565b5b8360058111156110705761106f6117a1565b5b1190505b92915050565b600081359050611089816119bc565b92915050565b60008135905061109e816119cc565b92915050565b6000602082840312156110ba576110b96117d0565b5b60006110c88482850161107a565b91505092915050565b600080604083850312156110e8576110e76117d0565b5b60006110f68582860161107a565b92505060206111078582860161108f565b9150509250929050565b61111a8161167f565b82525050565b61112981611691565b82525050565b6111388161169d565b82525050565b611147816116e4565b82525050565b61115e611159826116e4565b611700565b82525050565b600061117160128361158a565b915061117c826117e2565b602082019050919050565b600061119460158361158a565b915061119f8261180b565b602082019050919050565b60006111b760118361158a565b91506111c282611834565b602082019050919050565b60006111da60158361158a565b91506111e58261185d565b602082019050919050565b60006111fd60178361158a565b915061120882611886565b602082019050919050565b600061122060158361158a565b915061122b826118af565b602082019050919050565b6000611243600e8361158a565b915061124e826118d8565b602082019050919050565b6000611266600f8361158a565b915061127182611901565b602082019050919050565b600061128960008361157f565b91506112948261192a565b600082019050919050565b60006112ac60178361158a565b91506112b78261192d565b602082019050919050565b60006112cf60128361158a565b91506112da82611956565b602082019050919050565b60006112f260178361158a565b91506112fd8261197f565b602082019050919050565b611311816116da565b82525050565b611328611323826116da565b6116f6565b82525050565b600061133a828561114d565b60018201915061134a8284611317565b6020820191508190509392505050565b60006113658261127c565b9150819050919050565b60006020820190506113846000830184611111565b92915050565b600060208201905061139f6000830184611120565b92915050565b60006040820190506113ba6000830185611120565b6113c76020830184611111565b9392505050565b60006020820190506113e3600083018461112f565b92915050565b60006020820190506113fe600083018461113e565b92915050565b6000602082019050818103600083015261141d81611164565b9050919050565b6000602082019050818103600083015261143d81611187565b9050919050565b6000602082019050818103600083015261145d816111aa565b9050919050565b6000602082019050818103600083015261147d816111cd565b9050919050565b6000602082019050818103600083015261149d816111f0565b9050919050565b600060208201905081810360008301526114bd81611213565b9050919050565b600060208201905081810360008301526114dd81611236565b9050919050565b600060208201905081810360008301526114fd81611259565b9050919050565b6000602082019050818103600083015261151d8161129f565b9050919050565b6000602082019050818103600083015261153d816112c2565b9050919050565b6000602082019050818103600083015261155d816112e5565b9050919050565b60006020820190506115796000830184611308565b92915050565b600081905092915050565b600082825260208201905092915050565b60006115a6826116da565b91506115b1836116da565b9250827fffffffffffffffffffffffffffffffffffffffffffffffffffffffffffffffff038211156115e6576115e5611743565b5b828201905092915050565b60006115fc826116da565b9150611607836116da565b9250817fffffffffffffffffffffffffffffffffffffffffffffffffffffffffffffffff04831182151516156116405761163f611743565b5b828202905092915050565b6000611656826116da565b9150611661836116da565b92508282101561167457611673611743565b5b828203905092915050565b600061168a826116ba565b9050919050565b60008115159050919050565b6000819050919050565b60008190506116b5826119a8565b919050565b600073ffffffffffffffffffffffffffffffffffffffff82169050919050565b6000819050919050565b60006116ef826116a7565b9050919050565b6000819050919050565b600061170b826117d5565b9050919050565b600061171d826116da565b9150611728836116da565b92508261173857611737611772565b5b828206905092915050565b7f4e487b7100000000000000000000000000000000000000000000000000000000600052601160045260246000fd5b7f4e487b7100000000000000000000000000000000000000000000000000000000600052601260045260246000fd5b7f4e487b7100000000000000000000000000000000000000000000000000000000600052602160045260246000fd5b600080fd5b60008160f81b9050919050565b7f6861736820646f65736e2774206d617463680000000000000000000000000000600082015250565b7f4f6e6c79204a322063616e2063616c6c20746869730000000000000000000000600082015250565b7f4a3220686173206e6f7420706c61796564000000000000000000000000000000600082015250565b7f4a322068617320616c726561647920706c617965640000000000000000000000600082015250565b7f4a312073686f756c6420706c617920686973206d6f7665000000000000000000600082015250565b7f6f6e6c79204a312063616e2063616c6c20746869730000000000000000000000600082015250565b7f4769766520746865207374616b65000000000000000000000000000000000000600082015250565b7f53656c656374206f6e65206d6f76650000000000000000000000000000000000600082015250565b50565b7f4a322073686f756c6420706c617920686973206d6f7665000000000000000000600082015250565b7f7472616e73616374696f6e206661696c65640000000000000000000000000000600082015250565b7f596f752063616e2774206a6f696e207468652047616d65000000000000000000600082015250565b600681106119b9576119b86117a1565b5b50565b600681106119c957600080fd5b50565b6119d5816116da565b81146119e057600080fd5b5056fea2646970667358221220ecdc1821d5cb4b4b9f90a00c6dff7de3c74dbf019fbb4528ecef300b13f82e2264736f6c63430008060033",
  "linkReferences": {},
  "deployedLinkReferences": {}
}