{
  "_format": "hh-sol-artifact-1",
  "contractName": "RPS",
  "sourceName": "contracts/RPS.sol",
  "abi": [
    {
      "inputs": [
        {
          "internalType": "bytes32",
          "name": "_c1Hash",
          "type": "bytes32"
        },
        {
          "internalType": "address",
          "name": "_j2",
          "type": "address"
        }
      ],
      "stateMutability": "payable",
      "type": "constructor"
    },
    {
      "anonymous": false,
      "inputs": [
        {
          "indexed": false,
          "internalType": "bool",
          "name": "status",
          "type": "bool"
        }
      ],
      "name": "Game",
      "type": "event"
    },
    {
      "anonymous": false,
      "inputs": [
        {
          "indexed": false,
          "internalType": "enum RPS.Move",
          "name": "m",
          "type": "uint8"
        }
      ],
      "name": "J2Move",
      "type": "event"
    },
    {
      "anonymous": false,
      "inputs": [
        {
          "indexed": false,
          "internalType": "bool",
          "name": "status",
          "type": "bool"
        }
      ],
      "name": "Tie",
      "type": "event"
    },
    {
      "anonymous": false,
      "inputs": [
        {
          "indexed": false,
          "internalType": "bool",
          "name": "status",
          "type": "bool"
        },
        {
          "indexed": false,
          "internalType": "address",
          "name": "caller",
          "type": "address"
        }
      ],
      "name": "Timeout",
      "type": "event"
    },
    {
      "anonymous": false,
      "inputs": [
        {
          "indexed": false,
          "internalType": "address",
          "name": "winner",
          "type": "address"
        }
      ],
      "name": "wins",
      "type": "event"
    },
    {
      "inputs": [],
      "name": "TIMEOUT",
      "outputs": [
        {
          "internalType": "uint256",
          "name": "",
          "type": "uint256"
        }
      ],
      "stateMutability": "view",
      "type": "function"
    },
    {
      "inputs": [],
      "name": "c1Hash",
      "outputs": [
        {
          "internalType": "bytes32",
          "name": "",
          "type": "bytes32"
        }
      ],
      "stateMutability": "view",
      "type": "function"
    },
    {
      "inputs": [],
      "name": "c2",
      "outputs": [
        {
          "internalType": "enum RPS.Move",
          "name": "",
          "type": "uint8"
        }
      ],
      "stateMutability": "view",
      "type": "function"
    },
    {
      "inputs": [],
      "name": "getJ2",
      "outputs": [
        {
          "internalType": "address",
          "name": "",
          "type": "address"
        }
      ],
      "stateMutability": "view",
      "type": "function"
    },
    {
      "inputs": [],
      "name": "j1",
      "outputs": [
        {
          "internalType": "address",
          "name": "",
          "type": "address"
        }
      ],
      "stateMutability": "view",
      "type": "function"
    },
    {
      "inputs": [],
      "name": "j1Timeout",
      "outputs": [],
      "stateMutability": "nonpayable",
      "type": "function"
    },
    {
      "inputs": [],
      "name": "j2",
      "outputs": [
        {
          "internalType": "address",
          "name": "",
          "type": "address"
        }
      ],
      "stateMutability": "view",
      "type": "function"
    },
    {
      "inputs": [],
      "name": "j2Timeout",
      "outputs": [],
      "stateMutability": "nonpayable",
      "type": "function"
    },
    {
      "inputs": [],
      "name": "lastAction",
      "outputs": [
        {
          "internalType": "uint256",
          "name": "",
          "type": "uint256"
        }
      ],
      "stateMutability": "view",
      "type": "function"
    },
    {
      "inputs": [
        {
          "internalType": "enum RPS.Move",
          "name": "_c2",
          "type": "uint8"
        }
      ],
      "name": "play",
      "outputs": [],
      "stateMutability": "payable",
      "type": "function"
    },
    {
      "inputs": [
        {
          "internalType": "enum RPS.Move",
          "name": "_c1",
          "type": "uint8"
        },
        {
          "internalType": "uint256",
          "name": "_salt",
          "type": "uint256"
        }
      ],
      "name": "solve",
      "outputs": [],
      "stateMutability": "nonpayable",
      "type": "function"
    },
    {
      "inputs": [],
      "name": "stake",
      "outputs": [
        {
          "internalType": "uint256",
          "name": "",
          "type": "uint256"
        }
      ],
      "stateMutability": "view",
      "type": "function"
    }
  ],
  "bytecode": "0x608060405261012c60055560405162001a2438038062001a2483398181016040528101906200002f919062000135565b34600481905550336000806101000a81548173ffffffffffffffffffffffffffffffffffffffff021916908373ffffffffffffffffffffffffffffffffffffffff16021790555080600160006101000a81548173ffffffffffffffffffffffffffffffffffffffff021916908373ffffffffffffffffffffffffffffffffffffffff16021790555081600281905550426006819055507f6e7c98f0608d94ef6da86a58abbdd3fd8f7f180a561683b3084472c0884db47c6001604051620000f791906200018d565b60405180910390a150506200022d565b6000815190506200011881620001f9565b92915050565b6000815190506200012f8162000213565b92915050565b600080604083850312156200014f576200014e620001f4565b5b60006200015f858286016200011e565b9250506020620001728582860162000107565b9150509250929050565b6200018781620001be565b82525050565b6000602082019050620001a460008301846200017c565b92915050565b6000620001b782620001d4565b9050919050565b60008115159050919050565b6000819050919050565b600073ffffffffffffffffffffffffffffffffffffffff82169050919050565b600080fd5b6200020481620001aa565b81146200021057600080fd5b50565b6200021e81620001ca565b81146200022a57600080fd5b50565b6117e7806200023d6000396000f3fe6080604052600436106100a75760003560e01c806389f71d531161006457806389f71d531461018b578063a5ddec7c146101b6578063c37597c6146101df578063c83911421461020a578063eb7dd9da14610221578063f56f48f21461024c576100a7565b8063294914a4146100ac5780633a4b66f1146100c357806348e257cb146100ee5780634d03e3d21461011957806353a04b051461014457806380985af914610160575b600080fd5b3480156100b857600080fd5b506100c1610277565b005b3480156100cf57600080fd5b506100d8610342565b6040516100e5919061138f565b60405180910390f35b3480156100fa57600080fd5b50610103610348565b6040516101109190611234565b60405180910390f35b34801561012557600080fd5b5061012e61035b565b60405161013b9190611219565b60405180910390f35b61015e60048036038101906101599190610f12565b610361565b005b34801561016c57600080fd5b5061017561057e565b60405161018291906111ba565b60405180910390f35b34801561019757600080fd5b506101a06105a4565b6040516101ad919061138f565b60405180910390f35b3480156101c257600080fd5b506101dd60048036038101906101d89190610f3f565b6105aa565b005b3480156101eb57600080fd5b506101f4610c44565b60405161020191906111ba565b60405180910390f35b34801561021657600080fd5b5061021f610c68565b005b34801561022d57600080fd5b50610236610da9565b60405161024391906111ba565b60405180910390f35b34801561025857600080fd5b50610261610dd3565b60405161026e919061138f565b60405180910390f35b6000600581111561028b5761028a611598565b5b600360009054906101000a900460ff1660058111156102ad576102ac611598565b5b146102b757600080fd5b6005546006546102c791906113c6565b42116102d257600080fd5b60008054906101000a90505060006004819055507fe7e8a53e539ec3a31b72ff5c4c87bcba6de368e07c85cb0b0e96c4957d988a46600160008054906101000a900473ffffffffffffffffffffffffffffffffffffffff166040516103389291906111f0565b60405180910390a1565b60045481565b600360009054906101000a900460ff1681565b60025481565b6000600581111561037557610374611598565b5b600360009054906101000a900460ff16600581111561039757610396611598565b5b146103d7576040517f08c379a00000000000000000000000000000000000000000000000000000000081526004016103ce906112af565b60405180910390fd5b600060058111156103eb576103ea611598565b5b8160058111156103fe576103fd611598565b5b141561043f576040517f08c379a00000000000000000000000000000000000000000000000000000000081526004016104369061132f565b60405180910390fd5b6004543414610483576040517f08c379a000000000000000000000000000000000000000000000000000000000815260040161047a9061130f565b60405180910390fd5b600160009054906101000a900473ffffffffffffffffffffffffffffffffffffffff1673ffffffffffffffffffffffffffffffffffffffff163373ffffffffffffffffffffffffffffffffffffffff1614610513576040517f08c379a000000000000000000000000000000000000000000000000000000000815260040161050a9061126f565b60405180910390fd5b80600360006101000a81548160ff0219169083600581111561053857610537611598565b5b0217905550426006819055507fa2a70329b817e57fa5d6165e012f2e50d9f343f61ae8bc8730073b95550c3e1c816040516105739190611234565b60405180910390a150565b600160009054906101000a900473ffffffffffffffffffffffffffffffffffffffff1681565b60065481565b600060058111156105be576105bd611598565b5b8260058111156105d1576105d0611598565b5b1415610612576040517f08c379a0000000000000000000000000000000000000000000000000000000008152600401610609906112cf565b60405180910390fd5b6000600581111561062657610625611598565b5b600360009054906101000a900460ff16600581111561064857610647611598565b5b1415610689576040517f08c379a00000000000000000000000000000000000000000000000000000000081526004016106809061134f565b60405180910390fd5b60008054906101000a900473ffffffffffffffffffffffffffffffffffffffff1673ffffffffffffffffffffffffffffffffffffffff163373ffffffffffffffffffffffffffffffffffffffff1614610717576040517f08c379a000000000000000000000000000000000000000000000000000000000815260040161070e906112ef565b60405180910390fd5b600254828260405160200161072d929190611179565b6040516020818303038152906040528051906020012014610783576040517f08c379a000000000000000000000000000000000000000000000000000000000815260040161077a9061124f565b60405180910390fd5b61079c82600360009054906101000a900460ff16610dd9565b156108d95760008060009054906101000a900473ffffffffffffffffffffffffffffffffffffffff1673ffffffffffffffffffffffffffffffffffffffff1660045460026107ea919061141c565b6040516107f6906111a5565b60006040518083038185875af1925050503d8060008114610833576040519150601f19603f3d011682016040523d82523d6000602084013e610838565b606091505b505090508061087c576040517f08c379a00000000000000000000000000000000000000000000000000000000081526004016108739061136f565b60405180910390fd5b7f8047a97ac9efea27bb9b86a5928fa12f43ef92faec51097c05c33492196c936d60008054906101000a900473ffffffffffffffffffffffffffffffffffffffff166040516108cb91906111ba565b60405180910390a150610c0d565b6108f2600360009054906101000a900460ff1683610dd9565b15610a32576000600160009054906101000a900473ffffffffffffffffffffffffffffffffffffffff1673ffffffffffffffffffffffffffffffffffffffff166004546002610941919061141c565b60405161094d906111a5565b60006040518083038185875af1925050503d806000811461098a576040519150601f19603f3d011682016040523d82523d6000602084013e61098f565b606091505b50509050806109d3576040517f08c379a00000000000000000000000000000000000000000000000000000000081526004016109ca9061136f565b60405180910390fd5b7f8047a97ac9efea27bb9b86a5928fa12f43ef92faec51097c05c33492196c936d600160009054906101000a900473ffffffffffffffffffffffffffffffffffffffff16604051610a2491906111ba565b60405180910390a150610c0c565b60008060009054906101000a900473ffffffffffffffffffffffffffffffffffffffff1673ffffffffffffffffffffffffffffffffffffffff16600454604051610a7b906111a5565b60006040518083038185875af1925050503d8060008114610ab8576040519150601f19603f3d011682016040523d82523d6000602084013e610abd565b606091505b5050905080610b01576040517f08c379a0000000000000000000000000000000000000000000000000000000008152600401610af89061136f565b60405180910390fd5b6000600160009054906101000a900473ffffffffffffffffffffffffffffffffffffffff1673ffffffffffffffffffffffffffffffffffffffff16600454604051610b4b906111a5565b60006040518083038185875af1925050503d8060008114610b88576040519150601f19603f3d011682016040523d82523d6000602084013e610b8d565b606091505b5050905080610bd1576040517f08c379a0000000000000000000000000000000000000000000000000000000008152600401610bc89061136f565b60405180910390fd5b7ff239a9124b7d57a3894cccde0ed348b91ff965d770757bf9d3ddf2108f8860426001604051610c0191906111d5565b60405180910390a150505b5b60006004819055506000600360006101000a81548160ff02191690836005811115610c3b57610c3a611598565b5b02179055505050565b60008054906101000a900473ffffffffffffffffffffffffffffffffffffffff1681565b60006005811115610c7c57610c7b611598565b5b600360009054906101000a900460ff166005811115610c9e57610c9d611598565b5b1415610cdf576040517f08c379a0000000000000000000000000000000000000000000000000000000008152600401610cd69061128f565b60405180910390fd5b600554600654610cef91906113c6565b4211610cfa57600080fd5b600160009054906101000a900473ffffffffffffffffffffffffffffffffffffffff1673ffffffffffffffffffffffffffffffffffffffff166004546002610d42919061141c565b505060006004819055507fe7e8a53e539ec3a31b72ff5c4c87bcba6de368e07c85cb0b0e96c4957d988a4660018060009054906101000a900473ffffffffffffffffffffffffffffffffffffffff16604051610d9f9291906111f0565b60405180910390a1565b6000600160009054906101000a900473ffffffffffffffffffffffffffffffffffffffff16905090565b60055481565b6000816005811115610dee57610ded611598565b5b836005811115610e0157610e00611598565b5b1415610e105760009050610ee2565b60006005811115610e2457610e23611598565b5b836005811115610e3757610e36611598565b5b1415610e465760009050610ee2565b6002826005811115610e5b57610e5a611598565b5b610e659190611509565b6002846005811115610e7a57610e79611598565b5b610e849190611509565b1415610eb857816005811115610e9d57610e9c611598565b5b836005811115610eb057610eaf611598565b5b109050610ee2565b816005811115610ecb57610eca611598565b5b836005811115610ede57610edd611598565b5b1190505b92915050565b600081359050610ef78161178a565b92915050565b600081359050610f0c8161179a565b92915050565b600060208284031215610f2857610f276115c7565b5b6000610f3684828501610ee8565b91505092915050565b60008060408385031215610f5657610f556115c7565b5b6000610f6485828601610ee8565b9250506020610f7585828601610efd565b9150509250929050565b610f8881611476565b82525050565b610f9781611488565b82525050565b610fa681611494565b82525050565b610fb5816114db565b82525050565b610fcc610fc7826114db565b6114f7565b82525050565b6000610fdf6012836113b5565b9150610fea826115d9565b602082019050919050565b60006110026015836113b5565b915061100d82611602565b602082019050919050565b60006110256011836113b5565b91506110308261162b565b602082019050919050565b60006110486015836113b5565b915061105382611654565b602082019050919050565b600061106b6017836113b5565b91506110768261167d565b602082019050919050565b600061108e6015836113b5565b9150611099826116a6565b602082019050919050565b60006110b1600e836113b5565b91506110bc826116cf565b602082019050919050565b60006110d4600f836113b5565b91506110df826116f8565b602082019050919050565b60006110f76000836113aa565b915061110282611721565b600082019050919050565b600061111a6017836113b5565b915061112582611724565b602082019050919050565b600061113d6012836113b5565b91506111488261174d565b602082019050919050565b61115c816114d1565b82525050565b61117361116e826114d1565b6114ed565b82525050565b60006111858285610fbb565b6001820191506111958284611162565b6020820191508190509392505050565b60006111b0826110ea565b9150819050919050565b60006020820190506111cf6000830184610f7f565b92915050565b60006020820190506111ea6000830184610f8e565b92915050565b60006040820190506112056000830185610f8e565b6112126020830184610f7f565b9392505050565b600060208201905061122e6000830184610f9d565b92915050565b60006020820190506112496000830184610fac565b92915050565b6000602082019050818103600083015261126881610fd2565b9050919050565b6000602082019050818103600083015261128881610ff5565b9050919050565b600060208201905081810360008301526112a881611018565b9050919050565b600060208201905081810360008301526112c88161103b565b9050919050565b600060208201905081810360008301526112e88161105e565b9050919050565b6000602082019050818103600083015261130881611081565b9050919050565b60006020820190508181036000830152611328816110a4565b9050919050565b60006020820190508181036000830152611348816110c7565b9050919050565b600060208201905081810360008301526113688161110d565b9050919050565b6000602082019050818103600083015261138881611130565b9050919050565b60006020820190506113a46000830184611153565b92915050565b600081905092915050565b600082825260208201905092915050565b60006113d1826114d1565b91506113dc836114d1565b9250827fffffffffffffffffffffffffffffffffffffffffffffffffffffffffffffffff038211156114115761141061153a565b5b828201905092915050565b6000611427826114d1565b9150611432836114d1565b9250817fffffffffffffffffffffffffffffffffffffffffffffffffffffffffffffffff048311821515161561146b5761146a61153a565b5b828202905092915050565b6000611481826114b1565b9050919050565b60008115159050919050565b6000819050919050565b60008190506114ac82611776565b919050565b600073ffffffffffffffffffffffffffffffffffffffff82169050919050565b6000819050919050565b60006114e68261149e565b9050919050565b6000819050919050565b6000611502826115cc565b9050919050565b6000611514826114d1565b915061151f836114d1565b92508261152f5761152e611569565b5b828206905092915050565b7f4e487b7100000000000000000000000000000000000000000000000000000000600052601160045260246000fd5b7f4e487b7100000000000000000000000000000000000000000000000000000000600052601260045260246000fd5b7f4e487b7100000000000000000000000000000000000000000000000000000000600052602160045260246000fd5b600080fd5b60008160f81b9050919050565b7f6861736820646f65736e2774206d617463680000000000000000000000000000600082015250565b7f4f6e6c79204a322063616e2063616c6c20746869730000000000000000000000600082015250565b7f4a3220686173206e6f7420706c61796564000000000000000000000000000000600082015250565b7f4a322068617320616c726561647920706c617965640000000000000000000000600082015250565b7f4a312073686f756c6420706c617920686973206d6f7665000000000000000000600082015250565b7f6f6e6c79204a312063616e2063616c6c20746869730000000000000000000000600082015250565b7f4769766520746865207374616b65000000000000000000000000000000000000600082015250565b7f53656c656374206f6e65206d6f76650000000000000000000000000000000000600082015250565b50565b7f4a322073686f756c6420706c617920686973206d6f7665000000000000000000600082015250565b7f7472616e73616374696f6e206661696c65640000000000000000000000000000600082015250565b6006811061178757611786611598565b5b50565b6006811061179757600080fd5b50565b6117a3816114d1565b81146117ae57600080fd5b5056fea264697066735822122016997b370e2faf8adc627ebf970d9b937e4068978cc2762febc7d7b11366feb764736f6c63430008060033",
  "linkReferences": {},
  "deployedLinkReferences": {}
}